S020000053544B333830305F6672656572746F735F7469636B6C6573732E7333378D
S21400000000800020E5160000111700001117000000
S214000010111700001117000011170000111700003B
S214000020111700001117000011170000111700002B
S2140000301117000011170000111700000906000034
S214000040111700001117000011170000111700000B
S21400005011170000111700001117000011170000FB
S21400006011170000111700001117000011170000EB
S21400007011170000111700001117000011170000DB
S21400008011170000111700001117000011170000CB
S21400009011170000111700001117000011170000BB
S2140000A011170000111700001117000011170000AB
S2140000B011170000111700009D0400001117000022
S2140000C0111700001117000011170000111700008B
S2140000D0111700001117000011170000111700007B
S2140000E010B5054C237833B9044B13B10448AFF36D
S2140000F000800123237010BDB80800200000000017
S214000100A8C30100084B10B51BB108480849AFF357
S21400011000800848036803B910BD074B002BFBD0CE
S214000120BDE81040184700BF00000000A8C301004B
S214000130BC080020B408002000000000154B002B6F
S21400014008BF134B9D46A3F5803A00218B460F4609
S2140001501348144A121A00F063F80F4B002B00D015
S21400016098470E4B002B00D0984700200021040033
S2140001700D000D48002802D00C4800F013F900F0DE
S21400018027F82000290000F0E3FB00F011F800BF7C
S21400019000000800008000200000000000000000B2
S2140001A0B80800207C090020A5030000B103000069
S2140001B008B50021044600F08BF8044B1868C36BA2
S2140001C003B19847204608F063F800BF108400008B
S2140001D070B50F4E0F4D761BB61018BF002405D015
S2140001E0013455F8043B9847A642F9D10A4E0B4D08
S2140001F0761B08F0FFF8B61018BF002406D00134AE
S21400020055F8043B9847A642F9D170BD70BD00BFB3
S214000210A8080020A8080020B0080020A808002091
S21400022070B4840746D0541E002A41D0CDB203468F
S21400023002E0621EE4B3144603F8015B9A07F8D1A5
S214000240032C2ED9CDB245EA05250F2C45EA0545E7
S21400025019D903F110022646103E0F2E42F8105C04
S21400026042F80C5C42F8085C42F8045C02F11002AA
S214000270F2D8A4F1100222F00F0204F00F0410329C
S214000280032C13440DD91E462246043A032A46F888
S214000290045BFAD8221F22F003020432134404F04F
S2140002A003042CB1C9B21C4403F8011BA342FBD1C2
S2140002B070BC704714460346C2E700BF024B13B13A
S2140002C0024800F06FB8704700000000B10300005D
S2140002D02DE9F04F314B83B01B68009303F5A473F0
S2140002E081460E460193009BD3F8487127B3DDF88C
S2140002F004A07C68651E0ED4013407EB84044FF01E
S2140003000008E6B1D4F80031B34218D0013D6B1CAA
S214000310A4F10404F5D1224B73B17B68002B36D1CF
S2140003203B68002B34D03846CAF80030AFF3008064
S214000330DAF80070002FDCD103B0BDE8F08F7B68E0
S2140003402268013BAB420CBF7D60C4F80080002AE7
S214000350DCD0D7F88831D7F804B00121A94019427B
S21400036008D190477B685B45BDD1DAF80030BB42C8
S214000370CCD0B8E7D7F88C31194204D14846D4F827
S21400038080109047EEE7D4F880009047EAE73B6895
S214000390BA461F46002FACD1CEE700BF108400003F
S2140003A000000000014600200246034600F016B892
S2140003B038B5084B084DED1AAC1018BFED1805D02F
S2140003C0013C55F8043D9847002CF9D1BDE838406B
S2140003D008F016B8B0080020B40800202DE9F04751
S2140003E0254C2568D5F848410646884692469946E3
S2140003F0CCB360681F2818DC431C7EB104EB800574
S2140004000121C5F888A0D4F8887101FA00F21743D4
S214000410022EC4F88871C5F808911ED002306360B9
S21400042044F820800020BDE8F087144B03B34FF457
S214000430C870AFF300800446D0B1D5F84831002725
S21400044080E88800C5F8484138460123C4F888711A
S214000450C4F88C71002EE1D0D0E7D4F88C110A4392
S214000460C4F88C21DAE705F5A674C5F84841C0E75C
S2140004704FF0FF30BDE8F087108400000000000059
S21400048080B483B000AF7860034A7B6893610C3712
S214000490BD465DF8047B70470000084080B584B018
S2140004A000AF002000F090FF024680239A420AD058
S2140004B0002000F0D9FF80230020194600F0AAFF94
S2140004C0012000F0D1FF0720FFF7DAFFEFF31182DB
S2140004D04FF0BF0383F31188BFF36F8FBFF34F8FC7
S2140004E0BA607B6001F01EF8F860FB68002B07D04E
S2140004F0074B4FF080521A60BFF34F8FBFF36F8FDA
S21400050000233B603B6883F311881037BD4680BDEF
S21400051004ED00E080B483B000AF03463960FB71A1
S21400052097F90730002B0BDA0D49FB7903F00F0320
S214000530043B3A68D2B25201D2B20B441A7609E0B2
S214000540084997F907303A68D2B25201D2B20B4442
S21400055083F800230C37BD465DF8047B704700BF68
S21400056000ED00E000E100E080B582B000AF78600A
S2140005707B68013BB3F1807F01D301230FE00A4A79
S2140005807B68013B53604FF0FF300721FFF7C2FF47
S214000590054B00229A60044B07221A600023184677
S2140005A00837BD4680BD00BF10E000E080B483B0D1
S2140005B000AF78604FF06043D3F8803E03F001034D
S2140005C0002B13D04FF06043D3F8003E03F0010336
S2140005D0002B0BD000E000BF4FF060431B68002BE1
S2140005E0F9D04FF060437A68D2B21A707B6818462A
S2140005F00C37BD465DF8047B704700BF80B400AF83
S214000600BD465DF8047B704780B400AF044B1B68A2
S2140006100133034A1360BD465DF8047B704700BF94
S214000620D408002080B592B000AFF860B9607A6058
S2140006303B60784B1B683B64BB689BB207F11402B7
S2140006401046194601F0DCF907F1140318467968DC
S2140006507A68002301F058FA78687968BA6801F079
S214000660C1FE00237B64C8E07B6C9B007A68134461
S2140006701B68FB6397ED0F7AD7ED0F7A67EE277A44
S214000680C7ED0E7AFB68002B1DD17B6C9B003A6889
S2140006901344D3ED007A97ED0F7A77EE677AB0EED3
S2140006A0670A02F00DFBB0EE407A7B6C9B003A6D59
S2140006B013447A6C9200396D0A44D2ED007A77EED4
S2140006C0877AC3ED007A7B6C9B00FA6D134493ED3A
S2140006D0007A7B6C9B00FA6D1344D3ED006AD7ED6D
S2140006E00E7A76EEA77AC7EE277AC7ED0D7AD7EDA3
S2140006F00D7AB6EE007A37EEC77AD7ED0D7AF6EEBB
S214000700006A77EEE67A67EE277AC7ED0C7A97ED01
S2140007100C7AD7ED0C7A67EE277AC7ED0B7A7B6CEE
S2140007209B00BA6D13447A6C9200B96D0A4492ED40
S214000730007AD7ED0D7A27EE277AD7ED0B7ADFED24
S214000740366A67EEA66AD7ED0B7A66EEA77A37EEBC
S214000750677AD7ED0C7AF0EE046A67EEA67A77EE43
S214000760677A9FED2E7A77EE877AC3ED007A7B6CF8
S2140007709B003A6E1344D3ED007A97ED0F7A77EE2E
S214000780677A9FED277AF4EEC77AF1EE10FA0BDD62
S2140007907B6C9B007A6E1344D3ED007AB7EE007A3A
S2140007A077EE877AC3ED007A7B6C9B003A68134439
S2140007B0FA6B1A607B6C9B007A6D13447A6C92001D
S2140007C0796D0A4492ED007AD7ED0F7A77EE277AA4
S2140007D0C3ED007A7B6C9B00FA6D13447A6C920032
S2140007E0F96D0A4492ED007AD7ED0E7A77EE277A05
S2140007F0C3ED007A7B6C01337B647A6CBB689A42EB
S214000800FFF432AF034B1A683B6CD31A18464837CE
S214000810BD4680BDD40800200000C0426210803F64
S214000820A323A13F80B586B000AFF860B9607A60B8
S21400083000237B6109E0BB685A1CBA601B78184627
S214000840FFF7B4FE7B6901337B617A697B689A4265
S214000850F1DB7B6818461837BD4680BD80B400AF14
S214000860334A334B5B6C43F400535364314A314B89
S214000870D3F8203143F00403C2F820312D4A2D4B23
S214000880D3F8203123F44073C2F82031294A294B8B
S214000890D3F8B83023F47063C2F8B830254A254B35
S2140008A0D3F8B83043F48063C2F8B830204B102237
S2140008B01A6200BF1E4BDB6A03F02003002BF9D040
S2140008C01D4A1D4BDB6843F08073D3604FF06043D6
S2140008D01A4AC3F8B02F4FF060430022C3F8002E28
S2140008E04FF060430022C3F8802E154B0222C3F857
S2140008F0F020134B0F221A614FF060430022C3F81A
S214000900402E104B104A1A604FF060430F4AC3F84F
S214000910802E0B4B4FF48072C3F804234FF06043D5
S2140009200122C3F8002EBD465DF8047B704700BF69
S21400093000800C4000600040F0ED00E055CEACC5F5
S214000940000004E0001000E0FE0300400D0001007F
S2140009502DE9F04FB7B006AFFFF750FE01F03CF8B8
S214000960204800F075FB02461F4BA3FB02239B09A1
S2140009701846FFF7F9FD0346002B00D0FEE7FFF709
S2140009806DFF4FF40073C7F8B4304FF48073C7F8A8
S214000990B030D7F8B4106B467B600B46013BC7F807
S2140009A0AC300A464FF000035D0145EAD2655401BB
S2140009B00A464FF000034FEA431949EAD2694FEA64
S2140009C042188B0003330733DB08DB00ADEB030D67
S2140009D006AB03339B089B00C7F8A8300023C7F874
S2140009E0BC302EE050000200D34D6210DA0F4940B2
S2140009F0CDCCCC3D9A99993F1FED047A5FED047AF1
S214000A0027EE277AD7F8BC3007EE903AF8EEE77A6A
S214000A1067EE277AB0EE670A01F0CCFDB0EE407ABA
S214000A205FED0C7A67EE277AD7F8A820D7F8BC30A7
S214000A309B001344C3ED007AD7F8BC300133C7F8E7
S214000A40BC30D7F8BC20D7F8B4309A42D4D3D7F805
S214000A50B0106B4698460B46013BC7F8A4300A46D2
S214000A604FF000034FEA431B4BEAD26B4FEA421AA1
S214000A700A464FF000035801F866F86E40EAD26066
S214000A80F8665301BB668B0003330733DB08DB00D5
S214000A90ADEB030D06AB03339B089B00C7F8A030F5
S214000AA0D7F8B0100B46013BC7F89C300A464FF00B
S214000AB0000358017866786E40EAD2607866530183
S214000AC03B660A464FF000035801F865F86D40EAA9
S214000AD0D260F8655301BB658B0003330733DB0830
S214000AE0DB00ADEB030D06AB03339B089B00C7F89A
S214000AF09830D7F8B0100B46013BC7F894300A463A
S214000B004FF0000358017865786D40EAD26078654A
S214000B1053013B650A464FF000035801F864F86C31
S214000B2040EAD260F8645301BB648B00033307339A
S214000B30DB08DB00ADEB030D06AB03339B089B0025
S214000B40C7F89030D7F8B0100B46013BC7F88C308A
S214000B500A464FF0000358017864786C40EAD26089
S214000B60786453013B640A464FF000035801F8636B
S214000B70F86B40EAD260F8635301BB638B00033323
S214000B800733DB08DB00ADEB030D06AB03339B0836
S214000B909B00C7F88830D7F8B0100B46013BC7F863
S214000BA084300A464FF0000358017863786B40EAB9
S214000BB0D260786353013B630A464FF00003580146
S214000BC0F862F86A40EAD260F8625301BB628B00B2
S214000BD003330733DB08DB00ADEB030D06AB033353
S214000BE09B089B00C7F88030D7F8B0100B46013B37
S214000BF0FB670A464FF0000358017862786A40EABD
S214000C00D260786253013B620A464FF000035801F7
S214000C10F861F86940EAD260F8615301BB618B0065
S214000C2003330733DB08DB00ADEB030D06AB033302
S214000C309B089B00BB67D7F8B0100B46013B7B6751
S214000C400A464FF0000358017861786940EAD2609E
S214000C50786153013B610A464FF000035801F86083
S214000C60F86840EAD260F8605301BB608B0003333B
S214000C700733DB08DB00ADEB030D06AB03339B0845
S214000C809B003B67D7F8A8E0D7F8A060D7F8985045
S214000C90D7F89040D7F88800D7F88010BA6F3B6F27
S214000CA00095019402900391049205930120D7F8D1
S214000CB0B01072463346FFF7B5FC03461548194692
S214000CC003F05AF80023C7F8B83013E0D7F8A82086
S214000CD0D7F8B8309B0013441B68184602F028FA71
S214000CE002460B460C4803F047F8D7F8B8300133F5
S214000CF0C7F8B830D7F8B820D7F8B0309A42E5D35E
S214000D00C546D7F804D000231846C437BD46BDE80C
S214000D10F08F00BF148400001884000080B483B0F5
S214000D2000AF78603960FEE780B485B000AF7860C9
S214000D3039607B6803F10473DA003B6813449B0058
S214000D40FB60FB681B6818461437BD465DF8047BDD
S214000D50704700BF80B584B000AF78607B68002B1A
S214000D6003D07B68B3F5004F04D9084840F22451FD
S214000D70FFF7D4FF7B68B3FA83F3C3F11F03FB606E
S214000D80FB6818461037BD4680BD00BF1C840000B7
S214000D9080B400AF044BDB6C1B0EDBB21846BD46BE
S214000DA05DF8047B704700BFB081E00F80B582B06D
S214000DB000AF0B481E21FFF7B7FF786009480821EF
S214000DC0FFF7B2FF38607A683B689A4203D006485D
S214000DD0DC21FFF7A3FF7B6818460837BD4680BDB9
S214000DE000800C4004800C408084000080B582B0F7
S214000DF000AF244B5B6903F4E063B3F5007F1CD0BF
S214000E00B3F5007F05D8002B25D0B3F5807F1FD023
S214000E102AE0B3F5C06F24D0B3F5E06F1ED0B3F56B
S214000E20407F21D1FFF7B4FF0346122B02D9164BA1
S214000E307B6021E0154B7B601EE0FFF7A9FF0346B1
S214000E40122B02D9124B7B6016E0124B7B6013E02C
S214000E50114B7B6010E0114B7B600DE0104B7B600C
S214000E600AE0104B7B6007E00F484FF48F71FFF7E6
S214000E7055FF00237B6000BF7B6818460837BD46D9
S214000E8080BD00BF00800C40804F120040420F0023
S214000E9040B56400C0CF6A00C0D8A700809FD500C8
S214000EA0406F4001003FAB018084000080B582B0F7
S214000EB000AF0F4800F0BEF90346FB70FB78072B27
S214000EC005D0082B07D100F04DFC78600BE0FFF74B
S214000ED08DFF786007E0074840F24711FFF71EFFD6
S214000EE000237B6000BF7B6818460837BD4680BD80
S214000EF006000C008084000090B585B000AF7860D6
S214000F000023BB607B683B4A934208D03A4A934230
S214000F1005D03A484FF4F371FFF700FF00E000BF3A
S214000F20786800F087F90346FB607B68314A934295
S214000F3003D0314A934206D00CE0314B9B6A03F053
S214000F400303FB600CE02E4B9B6A03F00C039B082C
S214000F50FB6005E029484FF40471FFF7DFFE00BF91
S214000F60FB68032B39D801A252F823F0A30F000028
S214000F707D0F0000850F00008D0F000000F082FC42
S214000F80B86032E000F092FCB8602EE000F0D0FBD3
S214000F900446FFF70BFF0346013324FA03F3BB6056
S214000FA023E00023BB607B68124A934203D07B6831
S214000FB0114A934210D1124B9A6A7B680D498B42B4
S214000FC001D1102300E0142322FA03F3002B03D0F0
S214000FD000F062FCB86008E007E0084840F23B21F9
S214000FE0FFF79CFE0023BB6000BFBB6818461437A3
S214000FF0BD4690BD02001A0003001C00808400005D
S21400100000800C4080B582B000AF104800F012F9A6
S2140010100346FB70FB78032B07D0082B09D0022B66
S2140010200BD100F043FC78600AE000F02BFC7860FF
S21400103006E000F097FB786002E000237B6000BFCC
S2140010407B6818460837BD4680BD00BF07232200D0
S21400105090B585B000AF78607B6803F47813B3F57D
S214001060B01F00F0AB80B3F5B01F1AD8B3F5402F11
S21400107000F0BF80B3F5402F08D8B3F5003F3CD052
S214001080B3F5802F2DD0002B27D0BEE0B3F5801F00
S2140010903CD0B3F5A01F47D0B3F5602F00F0AD806D
S2140010A0B3E0B3F5081F00F0AC80B3F5081F0AD80C
S2140010B0B3F5D01F25D0B3F5E01F7AD0B3F5C01F27
S2140010C000F08980A1E0B3F5201F4ED0B3F5281FAD
S2140010D062D0B3F5181F35D097E000F043FBF860F8
S2140010E09BE000F03FFBF8604E4B9B6803F00F035D
S2140010F01A46FB68D340FB608FE000F019FBF860EF
S2140011008BE04948FFF7F8FEF86086E04648FFF7B0
S214001110F3FEF860434B9B6E03F0F0031B091A4680
S214001120FB68D340FB6078E03F48FFF7E5FEF860D9
S2140011303C4B9B6E03F470631B0A1A46FB68D34055
S214001140FB606AE03848FFF7D7FEF860354B9B6EC9
S21400115003F440531C0B1020FFF7FCFD034623440A
S2140011601A46FB68D340FB6057E02F48FFF7C4FEE3
S214001170F8602C4B9B6E03F440531B0B1A46FB681F
S214001180D340FB60274BDB6F03F007030133FA689D
S214001190B2FBF3F3FB6040E02348FFF7ADFEF860D8
S2140011A0204B9B6E03F003031A46FB68D340FB609C
S2140011B033E01E48FFF7A0FEF8602EE01B48FFF75E
S2140011C09BFEF860174B1B6F03F003031A46FB6881
S2140011D0D340FB6021E01548FFF78EFEF860114B08
S2140011E01B6F03F030031B091A46FB68D340FB60F5
S2140011F013E0FFF75BFEF8600FE0FFF7F7FDF8601F
S2140012000BE0FFF7FFFEF86007E0094840F2BC611C
S214001210FFF784FD0023FB6000BFFB681846143709
S214001220BD4690BD00800C4002001A0003001C0062
S2140012308084000080B584B000AF78600123FB7323
S2140012407B6803F00F03BB60BB68013B062B00F214
S214001250938001A252F823F075120000AB12000032
S214001260E712000079130000791300002313000032
S21400127045130000474BDB6A03F47053B3F5805FF9
S21400128009D0B3F5005F03D0B3F5006F06D008E0D1
S2140012900223FB7308E00323FB7305E00423FB73C0
S2140012A002E00523FB7300BF6EE03A4B9B6A03F037
S2140012B00303022B06D0032B07D0012B08D10323F0
S2140012C0FB730FE00223FB730CE00623FB7309E0BD
S2140012D0304B9B6A03F48033002B02D00923FB7348
S2140012E000E000BF50E02B4B9B6A03F00C03082B7A
S2140012F006D00C2B07D0042B08D10323FB730FE07A
S2140013000223FB730CE00623FB7309E0214B9B6A68
S21400131003F48013002B02D00923FB7300E000BF08
S21400132032E01C4B1B6803F08053002B03D0B3F154
S214001330805F03D028E00723FB7302E00823FB73DB
S21400134000BF21E0134BDB6A03F46033B3F5803F44
S21400135008D0B3F5003F08D0B3F5004F08D10823F6
S214001360FB7308E00223FB7305E00323FB7302E034
S2140013700123FB7300BF07E0074840F6A711FFF7FD
S214001380CDFC0023FB7300BFFB7B18461037BD4621
S21400139080BD00BF00800C408084000080B487B011
S2140013A000AFF860B9607A60FB6803F10473DA0096
S2140013B0BB6813449B007B617B697A681A601C37A4
S2140013C0BD465DF8047B704780B584B000AF78609A
S2140013D07B68012B03D90D487921FFF79FFC7B68BA
S2140013E0002B02D0012B04D007E0094B9B68FB6062
S2140013F006E0074BDB68FB6002E00023FB6000BFF3
S214001400FB6818461037BD4680BD00BFE484000068
S2140014100000084080B584B000AF786039607B6813
S214001420012B04D83B6803F07F43002B03D00B4806
S214001430AA21FFF773FC7B68002B02D0012B03D098
S21400144008E0074BFB6002E0064BFB6000BFFB6852
S2140014503A681A601037BD4680BD00BFE4840000BD
S214001460080008400C00084080B582B000AF034674
S214001470FB71FB79034800211A46FFF78FFF0837F8
S214001480BD4680BD0000084080B485B000AF7860DF
S21400149039607B685B68FB603B68FA685A60FB688B
S2140014A09A683B689A60FB689B683A685A60FB6873
S2140014B03A689A603B687A681A617B681B685A1CAF
S2140014C07B681A601437BD465DF8047B704700BF22
S2140014D080B485B000AF78607B681B69FB607B6872
S2140014E05B687A6892689A607B689B687A685268DC
S2140014F05A60FB685A687B689A4203D17B689A6890
S214001500FB685A607B6800221A61FB681B685A1EDB
S214001510FB681A60FB681B6818461437BD465DF802
S214001520047B704780B586B000AF00237B614F4BCD
S2140015301B68002B40F089804D4B1B6801333B61D4
S2140015404B4A3B6913603B69002B1AD1494B1B6819
S2140015501B68002B04D0484840F6D911FFF7DEFB85
S214001560444B1B68FB60454B1B68424A1360434A6A
S214001570FB681360424B1B680133414A136000F05E
S2140015808DF8404B1B683A699A424FD3394B1B681B
S2140015901B68002B01D1012300E00023002B04D0A0
S2140015A0384B4FF0FF321A6040E0324B1B68DB6866
S2140015B0DB68BB60BB685B687B603A697B689A42A5
S2140015C003D2304A7B68136030E0BB6804331846A9
S2140015D0FFF77EFFBB689B6A002B04D0BB681833FE
S2140015E01846FFF775FFBB68DB6A1A46012303FA45
S2140015F002F2254B1B681343234A1360BB68DA6A62
S21400160013469B0013449B00204A1A44BB680433CD
S21400161010461946FFF738FFBB68DA6A1C4B1B6892
S214001620DB6A9A4201D301237B61AFE7184B1B6844
S214001630DA6A164913469B0013449B000B441B684A
S214001640012B01D901237B6104E0124B1B68013397
S214001650104A1360104B1B68002B01D001237B61DE
S2140016607B6918461837BD4680BD00BF3809002084
S2140016702009002018090020488500001C090020C9
S214001680300900203409002024090020DC0800204E
S214001690D8080020280900202C09002080B483B038
S2140016A000AF0E4B1B681B68002B01D1012300E026
S2140016B00023002B04D00A4B4FF0FF321A6008E0DC
S2140016C0064B1B68DB68DB687B607B685B68044AEC
S2140016D013600C37BD465DF8047B70471809002080
S2140016E034090020064880470649074A074B9A42B5
S2140016F0BEBF51F8040B42F8040BF8E7FEF71EFDD8
S21400170065180000B4C3010000000020B8080020DF
S214001710FEE700BF80B400AF044BDB6C1B0EDBB2F1
S2140017201846BD465DF8047B704700BFB081E00FE9
S21400173080B582B000AF00F015F87860074B5B68A4
S21400174003F00F031A467B68D3407B60044A7B682D
S21400175013607B6818460837BD4680BD00800C4085
S2140017607409002080B582B000AF334BDB6A03F407
S2140017707053B3F5805F0AD0B3F5005F03D0B3F5BE
S214001780006F08D00BE02D4B1B687B6047E04FF4E2
S21400179000437B6043E02A4B1B687B603FE0264BA0
S2140017A0DB6803F4E063B3F5007F1BD0B3F5007F7E
S2140017B005D8002B24D0B3F5807F16D02BE0B3F5E8
S2140017C0806F09D0B3F5A06F03D0B3F5407F06D085
S2140017D021E01C4B7B6021E01B4B7B601EE01B4B1B
S2140017E07B601BE01A4B7B6018E0FFF793FF034615
S2140017F0122B02D9174B7B6010E0174B7B600DE075
S214001800FFF788FF0346122B02D9144B7B6005E0D6
S214001810134B7B6002E000237B6000BF00BF064BDB
S2140018201B6803F4E0339B0B01337A68B2FBF3F3D7
S21400183018460837BD4680BD00800C4030040020A6
S2140018402C040020003FAB01406F4001809FD50074
S214001850C0D8A70040B56400C0CF6A00804F120011
S21400186040420F0080B400AF054A054BD3F88830DD
S21400187043F47003C2F88830BD465DF8047B7047B9
S21400188000ED00E080B400AF4FF400431846BD46BC
S2140018905DF8047B704700BF80B400AF4FF47A73E6
S2140018A01846BD465DF8047B704700BF80B400AFA5
S2140018B0034B1B681846BD465DF8047B704700BFA7
S2140018C03004002080B582B000AF394A384B5B6CDC
S2140018D043F400535364374A364BD3F8203143F071
S2140018E00403C2F82031334A324BD3F8203123F4B4
S2140018F04073C2F820312F4A2E4BD3F8B83023F469
S2140019007063C2F8B8302B4A2A4BD3F8B83043F489
S2140019108063C2F8B830264B10221A6200BF244BF0
S214001920DB6A03F02003002BF9D0234A224B1B6806
S21400193043F001031360204A1F4BDB6843F08073BB
S214001940D3601E4B1E4A1A601E48FFF781FB0346F3
S21400195003F5D52303F2FC437B607B68DB081A4A59
S214001960A2FB03239B0A3B60184A3B68013B1361BA
S214001970164B0222C3F8F020144B4FF48072C3F8C3
S21400198004234FF06043124AC3F8B02F4FF0604371
S214001990104AC3F8802E4FF060424FF06043D3F8F1
S2140019A0003E43F00103C2F8003E0837BD4680BD46
S2140019B000800C4000600040F0ED00E0001000E009
S2140019C0FF13014006000C0017916502000004E0BA
S2140019D055CEACC50900010080B582B000AF4FF00F
S2140019E07E637B607B681B68002B01D1002302E0CE
S2140019F0FFF768FF012318460837BD4680BD00BFC5
S214001A004B08802B10B40182038047D017D9B3F55A
S214001A10007F3DD029D9B3F5806F20D0B3F5006F95
S214001A2013D12149214A224B4FF46E648481816090
S214001A3042604361002040B25DF8044B7047202BA3
S214001A401CD0402B06D0102B1DD0FF2040B25DF8D6
S214001A50044B704738241749174A184BE6E74FF4EB
S214001A60E1641749174A184BE0E7B3F5807FECD1DD
S214001A704FF4DC741549164A164BD7E7302416493E
S214001A80164A174BD2E714241649174A174BCDE7C8
S214001A904FF4E0741649174A174BC7E7D024174986
S214001AA0174A184BC2E700BFCC7B0100C085000078
S214001AB030E70000C0C600008C9901007CBE010023
S214001AC0B0500100B02F010030C700000CBB010071
S214001AD0302701008C9B0100685F0100B04F0100B9
S214001AE0C0C50000C05E0100302F0100E85E0100A6
S214001AF08CA30100CC6B01000CA701007CC0010088
S214001B00CC6701000CB701002DE9F041068A760883
S214001B100746154606800C46002B5CD11A46012364
S214001B2000F0E6FBD4ED007A94ED017A3E88786901
S214001B3037EE077A77EEA77AF6EE003A77EE876A00
S214001B4077EEC77A013E26EEA37A67EEA37A04EB19
S214001B50C60385ED007AC5ED017A103005F1100256
S214001B60083B04F1100151ED024A93ED025A11EDC3
S214001B70017A10ED026AD3ED035A50ED016A75EE54
S214001B80647A35EE874A35EE245A77EE655A66EE65
S214001B90274A26EEA77A34EE855A26EE046A66EEC3
S214001BA0846A77EE257A76EE856A77EEC67A66EEF2
S214001BB0A36A67EEA37A013E42ED026A42ED017A1D
S214001BC0A3F1080301F1080100F1080002F1080280
S214001BD0C9D1BDE8F081D1ED007AD1ED016A416945
S214001BE037EEA67A77EEE67AF6EE003A27EE237A16
S214001BF067EEA37A013E82ED007AC2ED017AF0002C
S214001C00EEB3083801F1100E204404F1100102F181
S214001C10100C90ED027A51ED026A1EED026A90ED0C
S214001C20034A11ED015A5EED015A76EEC77A74EE5C
S214001C30054A26EE273A77EE266A35EE445A25EE12
S214001C40A77A76EEC36A77EE057A26EE246A65EE04
S214001C50A45A77EEC67A36EEE57A67EEA37A27EED2
S214001C60237A013E0CED027A4CED017AA0F10800D1
S214001C7001F108010EF1080E0CF1080CC9D1384626
S214001C8029461A46BDE8F041012300F031BB00BFEB
S214001C902DE9F0412DED088BB0F800E042684FEAE0
S214001CA05E0C01EB8E085FEADE0E07464FEA8C03F9
S214001CB000F0AF801033CE181032434401F1100507
S214001CC008F1100454ED041A13ED044A53ED033AD8
S214001CD053ED025A13ED015A54ED036A14ED020A4D
S214001CE016ED042A56ED032A15ED036A15ED017A62
S214001CF015ED043A54ED017A56ED020A16ED011A76
S214001D0055ED024A73EE21BA36EE26BA37EE27AA0A
S214001D1072EE049A32EEA39A31EE058A74EE80AA29
S214001D2070EEA58A45ED04BA05ED03BA45ED02AAA4
S214001D3005ED01AA06ED018A46ED049A06ED039A22
S214001D4046ED028A76EE666A73EEE23A12ED036AB2
S214001D5052ED042A33EE613A34EE424A26EE868A83
S214001D6024EE062A63EE221A24EE224A23EE063AD0
S214001D7066EEA26A23EE866A63EEA23A36EE046A3E
S214001D8076EEC36A72EE633A71EE882A44ED036A11
S214001D9044ED042A43ED043A03ED036A77EE677ACE
S214001DA075EEE06A12ED017A52ED025A35EE416A9E
S214001DB074EEC04A67EE873A26EE875A24EEA54AA6
S214001DC067EEA57A64EE874A66EEA56A26EE077A7F
S214001DD026EE256A77EEE47A74EE235A35EE466AE6
S214001DE037EE267ABEF1010E44ED025A05F11005D3
S214001DF044ED017A06F1100603ED026A03ED017A5E
S214001E0002F1100204F1100403F110037FF45AAF3C
S214001E107A681FFA8CF408460223214600F06EFC0E
S214001E20BDEC088B404621467A680223BDE8F041A7
S214001E3000F064BC2DE9F04F2DED0A8B028891ED81
S214001E40006A8FB00F46520893000C9003914168C9
S214001E5097ED017A38461844064609901844D0EDA6
S214001E60006AD6ED003AD6ED012AD0ED017A0A9046
S214001E7076EE265A044625461C4494ED004A94ED18
S214001E80015A019475EEA34A304674EE244A3E4643
S214001E9014EE90EA76EE666A46F808EB37EE276AA6
S214001EA0D0ED014A049677EE677A019E32EEA63AA6
S214001EB096ED012A36EE247A75EEE35A77EEE34A7B
S214001EC036EE626A77EEA37A76EEE26A73EE453A0B
S214001ED0044636EE456A75EE266AA34637EE027A63
S214001EE034EE845A13EE908AA44675EEC45A87EDF3
S214001EF0017A4BF8088BACF104078CED015A01F11E
S214001F00080C2C46CDF814C015EE90CA44F808CB41
S214001F10079401F1100485ED016A520802942C46DC
S214001F2001F118050B92B246069577EEC47A023A8E
S214001F3016EE905AB646304652084AF8085BA0F1AC
S214001F400406CEED017A089200F030819146039A9D
S214001F50DDF80880CDF834A0083B02F1100501F149
S214001F60200CA4F10C0201F1300E3344103450461C
S214001F70594655ED023A14ED025A91ED007AD0ED2D
S214001F80007A15ED014A54ED015AD0ED016A91ED43
S214001F90016A33EE858A34EE250A78EE074A74EE37
S214001FA0655A77EEA44A33EEC55A45ED024AD1ED9E
S214001FB0014A90ED014A70EE244A76EE05AA74EEC8
S214001FC0844A35EEC7AA45ED014AD6ED001AD7ED8C
S214001FD0000A92ED024AD3ED023A93ED012A16ED7D
S214001FE0011AD2ED012A57ED019A70EEA14A39EE98
S214001FF0813A74EE848A70EEE11A73EEA88A7AEE5D
S214002000E6AA18EE90AA47F808A9D2ED018A93ED41
S214002010019A73EE288A3AEE27AA78EE898A74EE39
S214002020630AC7ED018A18ED02BA58ED018A39EE47
S214002030C11A6AEE28BA2AEE8BCA71EEE29A30EE20
S214002040819A79EE829A3CEE2BCA6AEEA8AA69EECD
S214002050A8BA2AEE0BAA69EE8B9A69EE288A29EEB0
S2140020600BBA1CEE10AA78EEA98A41F808AB3AEE35
S2140020706AAA3BEECBBA34EEC44A33EE623A01EDBE
S21400208001AAC2ED018A82ED02BA5CED044A74EE42
S214002090633A38EE478A1CED034A30EE460A33EEC2
S2140020A0423A38EE678A30EE660A23EEE49A63EE2A
S2140020B0048A28EE24AA60EE049A28EE048A20EE0B
S2140020C0240A63EE843A39EE684A7AEE299A14EEC8
S2140020D010AA30EE480A63EE244A44ED029A73EEE4
S2140020E0E43A04ED010A46F808A935EE466A35EEEC
S2140020F0877AC6ED013A76EE866A77EE677A1EED47
S214002100056A1EED067A67EE865A26EE875A72EE46
S214002110622A30EEC11A72EEE12A75EE255A62EE98
S214002120860A66EE866A67EE877A21EE066A62EEB1
S214002130872A21EE071A15EE90AA77EEE67A40F87F
S21400214008AB30EEC11A76EE222AB9F1010940ED4D
S214002150017A05F1080583ED021AC3ED012A08F19C
S2140021600808A2F108020CF1100C04F108040EF1A4
S214002170180EA3F108037FF4FCAE08990298DDF868
S21400218034A0CB0001EB410200EB0111029104994F
S2140021901944049105991944059107999B441944DB
S2140021A09A44069B079103EBC2030693049A07988A
S2140021B0D2ED003A90ED004ADBED007A9AED003A57
S2140021C0D2ED014A90ED017A9BED012ADAED015A33
S2140021D0BDF82C400C9E73EE846A34EE876A36EEA9
S2140021E0A75A34EEC77A33EE055A33EEC44A82ED68
S2140021F0005A9BED015ADAED014A36EE055A72EEA8
S214002200043A35EE245A77EE674A82ED015A059A6B
S21400221034EE835AD2ED001AD2ED012A029A73EEFA
S214002220E53A36EE426A63EEA14A63EEA23A65EEFE
S214002230222A25EE215A74EEA22A35EE635A76EE4D
S214002240E76ACBED002A8BED015AD2ED013A92ED0A
S214002250005A069A76EEC36A36EE656A66EE854AD8
S21400226026EE055A66EEA36A26EE236A75EE666AC1
S21400227034EE866A34EE424A37EE277AC0ED016ABB
S21400228080ED006A92ED016A039877EE437A75EE68
S214002290845A92ED007A65EE876A27EE877A65EEB5
S2140022A0865A67EE867A77EE655A76EEA77ACAED94
S2140022B0015ACAED007A72682146042300F01EFA1D
S2140022C0099872682146042300F018FA0A98726882
S2140022D02146042300F012FA01987268214604236E
S2140022E00FB0BDEC0A8BBDE8F04F00F007BA00BF98
S2140022F02DE9F041012A064617460C469846058801
S21400230054D0B5F5807F4CD016D9B5F5806F1AD06D
S2140023105CD9B5F5006F44D0B5F5805F05D1204691
S21400232029467268012300F0E9F9B8F1000F11D1CF
S214002330012F16D0BDE8F081202D32D04AD9402D8D
S214002340EDD0802DF1D130462146FFF7A1FCB8F143
S214002350000FEDD02046B189B26800F06FF9012F6A
S214002360E8D107EE905AF8EE676AF7EE007AC7EE05
S214002370A66A002DDED004F10801002301339D4239
S21400238001F1080111ED047A51ED037A27EE267A61
S21400239067EEE67A01ED047A41ED037AEED1BDE808
S2140023A0F08130462146FFF745FDBEE7ADB101F1AD
S2140023B00C03002253ED027A0132F1EE677A954261
S2140023C043ED027A03F10803F4D19AE7B5F5007FEE
S2140023D0A5D0AAE7102DB6D0A7E7B5F5807F94D88C
S2140023E0AAE700BF2DE9F0415FEA920884B07FD0EB
S2140023F0002700F1200401F1100546465AE0B1EE30
S214002400E70AB4EE400AF1EE10FA40F0A48005EDBB
S214002410040A54ED067A14ED050A67EEA77A20EE54
S214002420000A77EE807AF5EEC07AF1EE10FAC0F286
S2140024308F80B1EEE70AB4EE400AF1EE10FA40F0F3
S214002440AF8005ED030A54ED047A14ED030A67EE37
S214002450A77A20EE000A77EE807AF5EEC07AF1EEE3
S21400246010FA72DBB1EEE70AB4EE400AF1EE10FAAB
S21400247040F08C8005ED020A54ED027A14ED010A54
S21400248067EEA77A20EE000A77EE807AF5EEC07A3D
S214002490F1EE10FA20DBB1EEE70AB4EE400AF1EEF8
S2140024A010FA69D1013E05ED010A04F1200405F198
S2140024B0100519D054ED087A14ED070A67EEA77ACE
S2140024C020EE000A77EE807AF5EEC07AF1EE10FA8A
S2140024D095DA45F8107C9CE7013E45F8047C04F14B
S2140024E0200405F11005E5D100EB481001EB0811BA
S2140024F012F0030526D0002600F108040CE0B1EE29
S214002500E70AB4EE400AF1EE10FA2ED1013D01EDD5
S214002510010A04F1080415D054ED027A14ED010AFC
S21400252067EEA77A20EE000A043177EE807AF5EEA1
S214002530C07AF1EE10FAE2DA013D41F8046C04F1DB
S2140025400804E9D104B0BDE8F08145F8087C93E7BB
S21400255045F80C7C77E7B0EE670A0392029101908B
S21400256000F0B6FB01A807C851E7B0EE670A019174
S21400257000F0AEFB0199C9E7B0EE670A039202913C
S214002580019000F0A5FB01A807C88BE7B0EE670A2C
S21400259003920291019000F09BFB01A807C869E72F
S2140025A0B0EE670A03920291019000F091FB01A839
S2140025B007C846E79FED1E7AB5EEC00A20EE077AFA
S2140025C0F1EE10FAFDEEC77A2CD4F8EEE77ADFEDDE
S2140025D0196A194A77EE677AB7EE000A67EEA67AA6
S2140025E0F4EEE67AF1EE10FAA8BF77EEE67ABCEEE5
S2140025F0E77A17EE103AC3F3080307EE103AB8EE80
S214002600477A02EB830177EEC77AD1ED016A30EEA6
S214002610677A91ED000A67EEA67A27EE000A30EE9A
S214002620270A704717EE903A013B07EE903ACCE740
S21400263083F9223E00000044C85F01004B1C012BBA
S21400264098BF70472DE9F003911C9B08B1F80480F1
S214002650B1F802900A8831F802CC804481440244E2
S2140026608444D9F80070D8F800601568DCF800409B
S214002670C9F80060C8F80070CCF800501460D9F8AB
S2140026800470D8F804605568DCF80440C9F80460A3
S214002690C8F80470CCF8045054600831013BD5D11A
S2140026A0BDE8F00370474B1C012B98BF70472DE91F
S2140026B0F003911C9B08B1F80480B1F802900A88D8
S2140026C031F802CC00EB580800EB590900EB520237
S2140026D000EB5C0CD9F80070D8F800601568DCF8E0
S2140026E00040C9F80060C8F80070CCF800501460CC
S2140026F00831013BDFD1BDE8F00370472DE9F04F0C
S2140027002DED108B9DB01C469FEDC8BA1A92031D86
S214002710824689468B461B9300949E464FEADB030F
S2140027205A00D618F51803925A19D018DF0019184F
S2140027303C46019757440C930AEBC2021B010AEB76
S214002740C10107EB040C009C02930AEBC6060AEBD9
S214002750C505043204310AEBC0004FEACB034FF044
S2140027600008DCED007AD7ED006AD6ED003A5EEDA3
S21400277001AAD5ED004A90ED002A12ED017A51ED3E
S214002780010A77EE828A33EEA04A76EE871A3AEE90
S214002790A43A31EE846A33EE285A36EEC77A75EEDE
S2140027A0066A35EE465A4EED016A85ED005A96EDFC
S2140027B0011AD7ED015A92ED00AA91ED006A9EED3E
S2140027C0009A95ED015ADCED016AD0ED019A73EEA0
S2140027D0E00A71EE462A75EECA3A37EE600A33EE24
S2140027E0A28A37EE207A73EEE22A37EEC22A79EE14
S2140027F0053A60EE0B0A39EE455A7AEEE44A36EEB2
S214002800A99A75EE8A5A31EE066A76EEE96A28EEDD
S2140028100B8A62EE8B2A67EE0B7A33EE683A36EE58
S214002820880A75EE868A36EEC87A71EEC41A75EE98
S214002830626A33EEC94A35EEC66A33EE891A74EE1A
S214002840E05A74EEA03A75EE224A32EE275A72EE3D
S214002850677A33EE068A75EE872A31EE289A33EECB
S214002860466A74EE610A33EE802A35EEC77A34EE95
S214002870C53A76EEE75A31EE681A34EE214A73EE20
S214002880C03A74EE854A76EEA76AD844C1458EED06
S214002890009A85ED011A9E448CED008A1D4480ED59
S2140028A0006ACCED010A80ED014A9C4487ED002ABF
S2140028B0184441ED013A42ED012A86ED007A87ED93
S2140028C0013AC1ED004A1F44C2ED005A1944C6ED54
S2140028D0016A1A441E443FF644AF0C990729204665
S2140028E040F2E98104EB44073E193519039C009039
S2140028F02246013202EB81020099281800EB010EF5
S2140029000C990A4404EB010C4FEACE040AEBC20E03
S214002910009A0F94ED001195D5000D95019D083590
S2140029201695029D0835140117950F9A1A9D0E9458
S214002930C0001090AA180792109A0C9CAA18089229
S214002940119AAA18099201EB81010EF104020A926B
S214002950C9000D9A0C31F6004FEACC001491A91864
S2140029600E9A1296FF00AE1908304FEA0C1C069617
S2140029701990AA186401EE190CF10C00139704962E
S21400298015900391059204F1080218924FF0010881
S214002990002202F108010F460B9118998E1816991D
S2140029A08D1817998C1819998818149901EB020C30
S2140029B015990A440399D1ED00FA059991ED00FAAC
S2140029C00499D1ED00EA069991ED00EA0999D1ED56
S2140029D000DA089991ED00DA0799D1ED00CA03995B
S2140029E091ED01CA0599D1ED01BA0499D1ED01AA7C
S2140029F0069991ED01AA0999D1ED017A0899CDEDD4
S214002A00007AD1ED017A0799CDED017AD1ED017A00
S214002A100AEB070E0A9FCDED027A0CEB0A0156442C
S214002A205544544450445244C44601E0F304353FF0
S214002A3096ED005A52ED019A11ED016AD0ED007A3A
S214002A4017ED017ADEED003A94ED003A95ED002A96
S214002A509EED010A33EE858A32EE061A33EE294AD7
S214002A6077EE874A78EE041A71EE246A32EE462A2A
S214002A7031EEA66A77EEC77A8EED006AD0ED018A4F
S214002A8095ED019AD1ED002A97ED007AD4ED010A72
S214002A9096ED016AD2ED005A73EEC53A33EE693A06
S214002AA039EE625A78EEC79A38EE444A38EE877A9C
S214002AB030EEA58A79EE222A75EE698A32EE279ADA
S214002AC035EE295A72EE677A30EE062A69EE0B9AD0
S214002AD070EEE55A32EE089A68EE8B8A32EE482A95
S214002AE071EE644A25EE0B5A32EE871A67EE8B7A41
S214002AF072EEC72A30EE466A73EE290A36EE280AC8
S214002B0033EE693A32EE647A73EEA79A36EE686A66
S214002B1073EEE77A75EE858A74EE223A35EEC55A7C
S214002B2071EEE66A79EE411A39EEA88A76EE435AD5
S214002B3074EE622A72EE244A30EE604A79EEE88A33
S214002B4030EE200A77EE859A36EE036A77EEC57A7F
S214002B502EEE212A2EEE265A6FEE230A2AEE213A70
S214002B6039EE011A6AEE266A2BEE879A6BEEA33AC6
S214002B702FEE077A6FEE841A35EE033A72EE666A27
S214002B802CEE045A2FEE882A9DED024A8EED011A8D
S214002B9077EE633A2CEE088A9DED017A86ED003AD0
S214002BA030EE899A32EE052A6DEE220A31EEC88A98
S214002BB067EE222A64EE001A27EE247A2CEEA85A34
S214002BC06DEE244A64EE288A9DED004AC6ED016A41
S214002BD074EEE22A6DEEA94A64EE299A24EE254A9E
S214002BE030EE877A74EE844A6EEEA70A2AEE864A9C
S214002BF02CEE800A6DEEA55A6AEEA77A2EEE866A4D
S214002C0075EE211A30EE680A75EEE99A70EE840ABF
S214002C1036EE676ADC44E14584ED009AC4ED013A7D
S214002C209E4402ED017AC2ED002A1E4485ED002A7C
S214002C3085ED018A1C4447ED011A87ED000A1A4407
S214002C4041ED014AC1ED009A1D44C0ED000A1F4443
S214002C5080ED016A194418443FF6EAAE039A0D99CE
S214002C600A4403920E99059A0A4405921399049A07
S214002C700A4404921299069A0A4406921199099AED
S214002C800A4409921099089A0A4408920F99079ADA
S214002C900A4407920C990A9A08F1010808328845F6
S214002CA00A920B9A7FF475AEBDF834300093C34693
S214002CB0DDF86CE032E51DB0BDEC108BBDE8F08FA2
S214002CC010EE103A23F0004300EE103A704700BFB3
S214002CD010B52DED028B2A4C8AB0F0EE408A00F03B
S214002CE053F894F900300133B0EE408A09D0B0EEC4
S214002CF0680A00F09DF820B1F5EEC08AF1EE10FAF1
S214002D0005D4B0EE480A0AB0BDEC028B10BD012314
S214002D101C4A009318EE900A00230192089300F0D4
S214002D2007FA2478CDE90401CDE902019CB9002216
S214002D300023CDE90623684600F078F8A8B1089B82
S214002D40C3B9DDE9060100F059FC00EE100A0AB02E
S214002D50BDEC028B10BD0020002102460B4600F0A1
S214002D6065FB022CCDE90601E5D100F065FF2123C5
S214002D700360E4E700F060FF089B0360E1E700BF44
S214002D80340400201CC2010010EE103A23F000426A
S214002D90B2F1FF4F70B430D26AB3002B3DDBB2F510
S214002DA0000F4FEAE3512CD3A1F17F02C3F31603C1
S214002DB0D10743F4000348BF5B00002456105B00B5
S214002DC0254619214FF08072A818984202DC1B1A7B
S214002DD08518144401394FEA43034FEA5202F3D1EF
S214002DE013B104F001031C44641004F17C5404EB9A
S214002DF0C65300EE103A70BC7047A0EE000A70BCD6
S214002E00704713F400020DD15B00180202F10102B4
S214002E10FAD5C2F101021144C6E730EE400A80EE50
S214002E20000AE8E701221144BEE700BF0020704711
S214002E3010EE103A33F0004001D102207047A0F5A2
S214002E400003B3F1FE4F01D204207047054B421E2B
S214002E509A4201D803207047A0F1FF40B0FA80F0F4
S214002E6040097047FEFF7F0081F0004102E000BF8E
S214002E7083F0004330B54FEA41044FEA430594EA35
S214002E80050F08BF90EA020F1FBF54EA000C55EA70
S214002E90020C7FEA645C7FEA655C00F0E2804FEA41
S214002EA05454D4EB5555B8BF6D420CDD2C4480EA23
S214002EB0020281EA030382EA000083EA010180EA53
S214002EC0020281EA0303362D88BF30BD11F0004FA1
S214002ED04FEA01314FF4801C4CEA113102D04042D7
S214002EE061EB410113F0004F4FEA03334CEA133312
S214002EF002D0524263EB430394EA050F00F0A7802A
S214002F00A4F10104D5F1200E0DDB02FA0EFC22FA24
S214002F1005F2801841F1000103FA0EF2801843FA18
S214002F2005F359410EE0A5F120050EF1200E012A09
S214002F3003FA0EFC28BF4CF0020C43FA05F3C01847
S214002F4051EBE37101F0004507D54FF0000EDCF1C0
S214002F50000C7EEB00006EEB0101B1F5801F1BD369
S214002F60B1F5001F0CD349085FEA30004FEA3C0C6D
S214002F7004F101044FEA445212F5800F80F09A8063
S214002F80BCF1004F08BF5FEA500C50F1000041EB67
S214002F90045141EA050130BD5FEA4C0C404141EB6B
S214002FA0010111F4801FA4F10104E9D191F0000F92
S214002FB004BF01460020B1FA81F308BF2033A3F115
S214002FC00B03B3F120020CDA0C3208DD02F1140C0C
S214002FD0C2F10C0201FA0CF021FA02F10CE002F147
S214002FE01402D8BFC2F1200C01FA02F120FA0CFC40
S214002FF0DCBF41EA0C019040E41AA2BF01EB045189
S214003000294330BD6FEA04041F3C1CDA0C340EDC86
S21400301004F11404C4F1200220FA04F001FA02F3C9
S21400302040EA030021FA04F345EA030130BDC4F187
S2140030300C04C4F1200220FA02F001FA04F340EA7C
S2140030400300294630BD21FA04F0294630BD94F02D
S214003050000F83F4801306BF81F480110134013D14
S2140030604EE77FEA645C18BF7FEA655C29D094EA85
S214003070050F08BF90EA020F05D054EA000C04BF03
S2140030801946104630BD91EA030F1EBF00210020EE
S21400309030BD5FEA545C05D14000494128BF41F08D
S2140030A0004130BD14F580043CBF01F5801130BDF1
S2140030B001F0004545F0FE4141F470014FF000007C
S2140030C030BD7FEA645C1ABF194610467FEA655C2D
S2140030D01CBF0B46024650EA013406BF52EA0335CF
S2140030E091EA030F41F4002130BD00BF90F0000FBD
S2140030F004BF0021704730B54FF4806404F13204F9
S2140031004FF000054FF0000150E700BF90F0000FB1
S21400311004BF0021704730B54FF4806404F13204D8
S21400312010F0004548BF40424FF000013EE700BFA8
S21400313042004FEAE2014FEA31014FEA02701FBF38
S21400314012F07F4393F07F4F81F06051704792F00A
S214003150000F14BF93F07F4F704730B54FF4607484
S21400316001F0004521F0004120E700BF50EA0102CF
S21400317008BF704730B54FF000050AE050EA01027C
S21400318008BF704730B511F0004502D5404261EBEC
S21400319041014FF4806404F132045FEA915C3FF42D
S2140031A0DCAE4FF003025FEADC0C18BF03325FEAC6
S2140031B0DC0C18BF033202EBDC02C2F1200300FA7B
S2140031C003FC20FA02F001FA03FE40EA0E0021FAA0
S2140031D002F11444C1E600BF70B54FF0FF0C4CF48A
S2140031E0E06C1CEA11541DBF1CEA135594EA0C0F40
S2140031F095EA0C0F00F0DEF82C4481EA030621EA7B
S2140032004C5123EA4C5350EA013518BF52EA0335B5
S21400321041F4801143F4801338D0A0FB02CE4FF067
S2140032200005E1FB02E506F00042E0FB03E54FF097
S2140032300006E1FB03569CF0000F18BF4EF0010E8F
S214003240A4F1FF04B6F5007F64F5407404D25FEA8B
S2140032504E0E6D4146EB060642EAC62141EA55513E
S2140032604FEAC52040EA5E504FEACE2EB4F1FD0C80
S21400327088BFBCF5E06F1ED8BEF1004F08BF5FEAFE
S214003280500E50F1000041EB045170BD06F00046B0
S21400329046EA010140EA020081EA0301B4EB5C045D
S2140032A0C2BFD4EB0C0541EA045170BD41F4801155
S2140032B04FF0000E013C00F3AB8014F1360FDEBF7A
S2140032C0002001F0004170BDC4F10004203C35DA56
S2140032D00C341BDC04F11404C4F1200500FA05F3D9
S2140032E020FA04F001FA05F240EA020001F000427A
S2140032F021F0004110EBD37021FA04F642EB0601F0
S2140033005EEA430E08BF20EAD37070BDC4F10C0419
S214003310C4F1200500FA04F320FA05F001FA04F2DD
S21400332040EA020001F0004110EBD37041F10001C9
S2140033305EEA430E08BF20EAD37070BDC4F12005D4
S21400334000FA05F24EEA020E20FA04F301FA05F23C
S21400335043EA020321FA04F001F0004121FA04F2E4
S21400336020EA020000EBD3705EEA430E08BF20EAB4
S214003370D37070BD94F0000F0FD101F000464000EE
S21400338041EB010111F4801F08BF013CF7D041EA70
S214003390060195F0000F18BF704703F00046520074
S2140033A043EB030313F4801F08BF013DF7D043EA45
S2140033B00603704794EA0C0F0CEA135518BF95EAFB
S2140033C00C0F0CD050EA410618BF52EA4306D1D182
S2140033D081EA030101F000414FF0000070BD50EAA1
S2140033E0410606BF1046194652EA430619D094EA2B
S2140033F00C0F02D150EA013613D195EA0C0F05D115
S21400340052EA03361CBF104619460AD181EA030168
S21400341001F0004141F0FE4141F470014FF0000020
S21400342070BD41F0FE4141F4780170BD70B54FF0BB
S214003430FF0C4CF4E06C1CEA11541DBF1CEA13553B
S21400344094EA0C0F95EA0C0F00F0A7F8A4EB05041D
S21400345081EA030E52EA03354FEA013100F0888014
S2140034604FEA03334FF0805545EA131343EA1263DD
S2140034704FEA022245EA111545EA10654FEA002692
S2140034800EF000419D4208BF964244F1FD0404F54B
S214003490407402D25B084FEA3202B61A65EB0305A7
S2140034A05B084FEA32024FF480104FF4002CB6EB64
S2140034B0020E75EB030E22BFB61A754640EA0C00E4
S2140034C05B084FEA3202B6EB020E75EB030E22BF24
S2140034D0B61A754640EA5C005B084FEA3202B6EB65
S2140034E0020E75EB030E22BFB61A754640EA9C0024
S2140034F05B084FEA3202B6EB020E75EB030E22BFF4
S214003500B61A754640EADC0055EA060E18D04FEAB1
S214003510051545EA16754FEA06164FEAC30343EA51
S21400352052734FEAC2025FEA1C1CC0D111F4801F1E
S2140035300BD141EA00014FF000004FF0004CB6E717
S21400354011F4801F04BF01430020B4F1FD0C88BFB6
S214003550BCF5E06F3FF6AFAEB5EB030C04BFB6EBC1
S214003560020C5FEA500C50F1000041EB045170BDB4
S2140035700EF0004E4EEA113114EB5C04C2BFD4EBE1
S2140035800C0541EA045170BD41F480114FF0000E65
S214003590013C90E645EA060E8DE60CEA135594EAE1
S2140035A00C0F08BF95EA0C0F3FF43BAF94EA0C0FE4
S2140035B00AD150EA01347FF434AF95EA0C0F7FF459
S2140035C025AF104619462CE795EA0C0F06D152EAAD
S2140035D003353FF4FDAE1046194622E750EA410691
S2140035E018BF52EA43067FF4C5AE50EA41047FF4A2
S2140035F00DAF52EA43057FF4EBAE12E74FEA410205
S214003600B2F1E04324BFB3F5001CDCF1FE5C0DD93B
S21400361001F0004C4FEAC0024CEA5070B2F1004F85
S21400362040EB830008BF20F00100704711F0804F88
S21400363021D113F13872BCBF01F00040704741F44D
S21400364080114FEA5252C2F11802C2F1200C10FA51
S2140036500CF320FA02F018BF40F001004FEAC12335
S2140036604FEAD32303FA0CFC40EA0C0023FA02F3D9
S2140036704FEA4303CCE77FEA625307D150EA0133AF
S2140036801EBF4FF0FE4040F44000704701F000407F
S21400369040F0FE4040F40000704700BF53B94AB9FE
S2140036A0002908BF00281CBF4FF0FF314FF0FF3045
S2140036B000F03CB882B0EC462DE9005000F01EF851
S2140036C0DDF804E002B00CBC704700BF2DE9F04105
S2140036D0069C154606460F46984600F029F805FB58
S2140036E001F300FB0838A5FB0023B21A434467EB3E
S2140036F00303C4E90023BDE8F08100BF2DE9F041D3
S214003700069C904606460F461D4600F05FF900FBF5
S21400371005F5A0FB082308FB0155B21A2B4467EBFE
S2140037200303C4E90023BDE8F08100BF704700BF73
S21400373000292DE9F043C0F2A6800026002BC0F237
S2140037409C80884694469E46154604460F46002BA7
S2140037503DD18A4259D9B2FA82F33BB1C3F1200275
S2140037609F4020FA02F29D4017439C40290C220CF1
S214003770B7FBF1FEA8B201FB1E7742EA074700FB43
S2140037800EF3BB420AD97F190EF1FF3280F0058195
S214003790BB4240F20281AEF1020E2F44FF1AA4B2E1
S2140037A0B7FBF1F301FB137744EA074700FB03F08E
S2140037B0B84208D97F1903F1FF3280F0F080B84292
S2140037C040F2ED80023B43EA0E43002203E08B42C8
S2140037D00FD900221346341C18BF012460424FF054
S2140037E0000565EB45015840514000196941BDE8A8
S2140037F0F083B3FA83F2002A40F086808B4202D32D
S214003800844500F2DB800123E5E712B90123B3FB10
S214003810F2F5B5FA85F000283BD1781B4FEA154E35
S2140038201FFA85FC0122B0FBFEF8210C0EFB1807E0
S21400383041EA07470CFB08F3BB4207D97F1908F19A
S214003840FF3102D2BB4200F2BD808846FF1AA4B206
S214003850B7FBFEF30EFB137744EA07470CFB03FCAB
S214003860BC4507D97F1903F1FF3102D2BC4500F2EF
S214003870A7800B4643EA0843ADE752426FEA0606C6
S21400388063EB43035DE7404261EB41014FF0FF36D7
S21400389054E7C0F1200224FA02F107FA00F385404B
S2140038A04FEA154ED7401943B7FBFEF20B0C0EFB42
S2140038B012771FFA85FC43EA07430CFB02F79F4288
S2140038C004FA00F407D95B1902F1FF3074D29F4264
S2140038D072D9023A2B44DF1B89B2B7FBFEF80EFB07
S2140038E0187341EA03430CFB08F79F4208D95B199B
S2140038F008F1FF315CD29F425AD9A8F102082B4446
S214003900D81B48EA02428EE7C2F120032CFA03F1E4
S2140039100EFA02FE20FA03F741EA0E0E08FA02F04B
S21400392028FA03F14FEA1E453843B1FBF5F8030CBD
S21400393005FB18111FFA8EF743EA014107FB08F34F
S2140039408B420CFA02FC09D911EB0E0108F1FF3983
S21400395030D28B422ED9A8F102087144C91A80B21F
S214003960B1FBF5F305FB131140EA014107FB03F732
S2140039708F4208D911EB0E0103F1FF3016D28F42A9
S21400398014D9023B714443EA0843C91BA3FB0C89C4
S214003990494509D305D000221DE79646FEE61346A4
S2140039A011E794404445F6D2013BF4E70346EAE7C4
S2140039B08846A5E7C846D1E702468CE713460AE7DD
S2140039C0023B57E7A8F102082F443FE72DE9F041F4
S2140039D0002B44D18A42154604464FD9B2FA82F7E4
S2140039E00E464FB1C7F12003B94020FA03F602FA9B
S2140039F007F50E4300FA07F44FEA154E230CB6FB04
S214003A00FEF0AFB20EFB106143EA014307FB00F184
S214003A10994209D95B1900F1FF3280F0EC80994297
S214003A2040F2E98002382B445A1AA4B2B2FBFEF3E5
S214003A300EFB132244EA024207FB03F7974208D91B
S214003A40521903F1FF3180F0D880974240F2D580BA
S214003A50023B43EA004000263146BDE8F0818B4237
S214003A6047D8B3FA83F6002E48D18B4202D382425F
S214003A7000F2CD8001203146BDE8F08112B9012563
S214003A80B5FBF2F5B5FA85F8B8F1000F77D14A1B09
S214003A904FEA154EAFB20126B2FBFEF0230C0EFB2A
S214003AA0102143EA014107FB00F38B4207D949196D
S214003AB000F1FF3202D28B4200F2BA801046C91AD9
S214003AC0A4B2B1FBFEF30EFB131144EA014407FB5C
S214003AD003F7A74208D9641903F1FF3280F08F80FC
S214003AE0A74240F28C80023B43EA00403146BDE8E4
S214003AF0F081002630463146BDE8F081C6F120044C
S214003B0022FA04F5B3402B4320FA04FC01FA06F728
S214003B1021FA04F54FEA134E4CEA0707B5FBFEF808
S214003B20390C0EFB18551FFA83FC41EA05450CFBC1
S214003B3008F1A94202FA06F204D9ED1808F1FF349A
S214003B4067D3A0466D1ABFB2B5FBFEF40EFB145544
S214003B5047EA05410CFB04FC8C4504D9C91804F15E
S214003B60FF355CD32C4644EA0844CCEB0101A4FBA9
S214003B700223994248D344D0204600266CE7C8F179
S214003B80200401FA08F305FA08F520FA04F7E140E4
S214003B904FEA154E1F43B1FBFEF63A0C0EFB16110C
S214003BA01FFA85FC42EA01430CFB06F29A4200FA31
S214003BB008F407D95B1906F1FF3137D29A4235D996
S214003BC0023E2B449B1ABFB2B3FBFEF00EFB103333
S214003BD047EA03430CFB00F1994207D95B1900F151
S214003BE0FF3221D299421FD902382B445A1A40EA92
S214003BF00646674650E7104616E70B4629E7134683
S214003C0072E7B0409042B7D2601E002624E73046E6
S214003C1022E7A94295D9A8F102081D4492E78C45EF
S214003C20A0D9023C19449EE71046DFE70E46C9E7D6
S214003C300238294443E700BF014B1868704700BFAD
S214003C4028040020844641EA000313F003036DD1E4
S214003C50403A41D351F8043B40F8043B51F8043B4A
S214003C6040F8043B51F8043B40F8043B51F8043B51
S214003C7040F8043B51F8043B40F8043B51F8043B41
S214003C8040F8043B51F8043B40F8043B51F8043B31
S214003C9040F8043B51F8043B40F8043B51F8043B21
S214003CA040F8043B51F8043B40F8043B51F8043B11
S214003CB040F8043B51F8043B40F8043B51F8043B01
S214003CC040F8043B51F8043B40F8043B51F8043BF1
S214003CD040F8043B403ABDD2303211D351F8043B91
S214003CE040F8043B51F8043B40F8043B51F8043BD1
S214003CF040F8043B51F8043B40F8043B103AEDD240
S214003D000C3205D351F8043B40F8043B043AF9D290
S214003D10043208D0D2071CBF11F8013B00F8013B63
S214003D2001D30B8803806046704700BF082A13D370
S214003D308B078DD010F003038AD0C3F10403D21A88
S214003D40DB071CBF11F8013B00F8013B80D331F8BC
S214003D50023B20F8023B7BE7043AD9D3013A11F83C
S214003D60013B00F8013BF9D20B7803704B784370A7
S214003D708B788370604670470FB400B5074983B0F0
S214003D8004AB086853F8042B8168019300F038F8F8
S214003D9003B05DF804EB04B0704700BF28040020B1
S214003DA020F0030110F00300C0F1000051F8043BBE
S214003DB000F1040C4FEACC0C6FF000021CBF22FA94
S214003DC00CF213434FF0010C4CEA0C2C4CEA0C4C52
S214003DD0A3EB0C0222EA030212EACC1204BF51F84B
S214003DE0043B0430F4D0C2F1000102EA0102B2FA48
S214003DF082F2C2F11F0200EBD20070470000000002
S214003E002DE9F04FBDB01C4689460492074602F0E5
S214003E1033FD036811931846FFF7C2FF089412900B
S214003E201FB1BB6B002B00F0F380B9F80C2093B2E7
S214003E309E040AD4D9F8641042F4005321F40051C9
S214003E40A9F80C30C9F864109BB21D0740F1AA808F
S214003E50D9F81020002A00F0A58003F01A030A2BD8
S214003E6000F0AC809FED6E7B00238DED0E7B0D93F6
S214003E70219320931093139305932CAB1F931C460A
S214003E80B846049D2B78002B00F0C680252B02D167
S214003E90C2E0252B03D015F8013F002BF9D1049B77
S214003EA0EE1A7EB1209B219A049921600133324498
S214003EB0072B66602192209300F393800834059BBD
S214003EC0334405932B78002B00F093800023691C65
S214003ED04FF0FF3A6D788DF85F301A4606930293DE
S214003EE056464B1CA5F12001582900F2CD83DFE889
S214003EF011F05C02CB03CB030203CB03CB03CB0353
S214003F00CB03CB03CB030903D202CB03F801530345
S214003F10CB03D602DD02DD02DD02DD02DD02DD02BC
S214003F20DD02DD02DD02CB03CB03CB03CB03CB03E9
S214003F30CB03CB03CB03CB03CB0371029302CB03A0
S214003F409302CB03CB03CB03CB03CB02CB03CB0336
S214003F506E03CB03CB03CB03CB03CB03B503CB035F
S214003F60CB038B03CB03CB03CB03CB03CB03CB031C
S214003F70CB03CB03CB03CB03A0031703930293021D
S214003F80930230031703CB03CB033703CB03410362
S214003F90FF01EC026302CB031102CB039B00CB03B1
S214003FA0CB0336023846494601F078F9A0B9B9F88D
S214003FB00C3003F01A030A2B7FF454AFB9F90E3015
S214003FC0002BFFF64FAF38464946049A234601F0C9
S214003FD029F93DB0BDE8F08F4FF0FF303DB0BDE8A9
S214003FE0F08F404649461FAA03F04EFB40B92CAC62
S214003FF065E7219B23B1404649461FAA03F044FBD0
S214004000B9F80C305A06E7D405983DB0BDE8F08FF5
S214004010384602F0CDFA08E7049D53E7AFF3008078
S21400402000000000000000000493029BB2469E06BB
S21400403040F11E83089F073727F0070303F10802A5
S214004040D3E90067089201234FF0000C8DF85FC09B
S214004050CDF82CA0BAF1000F03DB029A22F0800202
S214004060029256EA070240F01F83BAF1000F00F0F2
S2140040701C84012B00F02083022B00F052842CA914
S214004080F20842EA4772F80806F0070307461646A3
S214004090303356EA070201F8013DF1D1029A0A913F
S2140040A0D00700F1F9842CAB5B1A0793079A924568
S2140040B05346B8BF1346039300230C93BCF1000F7E
S2140040C002D0039B01330393029B13F00203099370
S2140040D002D0039B02330393029B13F0840640F046
S2140040E0E082069B039AC2EB030ABAF1000F40F384
S2140040F0D882BAF1100F2199209AB34FC8BF4FF05B
S214004100100B07DC1EE0AAF1100ABAF1100F04F13A
S214004110080417DD01321031072A2191209284E825
S2140041208008F0DD404649461FAA03F0ADFA002895
S2140041307FF466AFAAF1100ABAF1100F2199209AFF
S2140041402CACE7DC01320AEB010B072ACDF884B071
S214004150209284E8800400F34A849DF85FC0083407
S214004160BCF1000F0FD0209B01330BF1010B0DF1BA
S2140041705F010122072BCDF884B0209384E8060067
S21400418000F3B1830834099B73B1209B01330BF114
S214004190020B18A90222072BCDF884B0209384E8DE
S2140041A0060000F3AC830834802E00F0F0820B9BF0
S2140041B0079AC2EB030ABAF1000F32DDBAF1100F0C
S2140041C0209A824F22DD10265B4606E0AAF1100AEE
S2140041D0BAF1100F04F1080417DD01321033072A74
S2140041E02193209227606660F0DD404649461FAA6C
S2140041F003F04AFA00287FF403AFAAF1100ABAF1D6
S214004200100F219B209A2CACE7DC9B460132D3444E
S214004210072ACDF884B0209284E8800400F3578300
S2140042200834029BDB0500F15B82209B07990A9A03
S214004230226001338B44072BCDF884B06160209355
S21400424000F31D830834029B59073AD5069B039A50
S2140042509D1A002D35DD102D209B5B4F1EDD102690
S2140042605A4604E0103D102D04F1080415DD013314
S2140042701032072B2192209327606660F2DD4046BD
S21400428049461FAA03F000FA00287FF4B9AE103D95
S214004290102D219A209B2CACE9DC93460133AB44CD
S2140042A0072BCDF884B020932760656009DD404673
S2140042B049461FAA03F0E8F900287FF4A1AEDDF80E
S2140042C084B0059B039A06998A42ACBF9B185B187C
S2140042D00593BBF1000F40F0DE82002320932CAC48
S2140042E0CFE5194602981D7840F004000290F8E5E4
S2140042F00493029B13F02003B24600F07381089FDC
S214004300073727F0070303F10802D3E9006708928E
S214004310002399E6089A049313680A934FF0000B5B
S2140043208DF85FB0171D002B00F05E86002E0A98F1
S214004330C0F212865946324602F0A4FD002800F06C
S2140043408F860A9BCDF82CB0C31A0793089723EAEA
S214004350E3730393CDF830B09DF85FC0AEE60493E8
S2140043601B4B1093029B8DF85F209906B24640F1D6
S2140043705581089F073727F00703D3E9006703F145
S21400438008020892029BDB0740F1E48256EA070324
S21400439000F0E082029A8DF86150302342F002026B
S2140043A08DF86030029202234EE61D781946002AE8
S2140043B07FF497AD202294E5029941F02001029106
S2140043C01D7819468DE500BF78C2010024C20100A1
S2140043D058C201000493029B8DF85F2043F010033F
S2140043E00293029B9806B24640F1A280089F0737C8
S2140043F027F00707D7E9002307F1080108911646BA
S2140044001F46002A73F10003C0F21C849DF85FC0AB
S214004410CDF82CA001231DE60493029B089F8DF87F
S2140044205F201B07B246B34607F1070740F19B849F
S21400443027F0070393ED007B8DED0E7B03F108025A
S21400444008929DED0E0B03F061F8012840F00884F9
S214004450DDE90E010022002303F07CFF002840F077
S214004460EC859DF85FC0029E994A9A4B0321002076
S21400447026F08006472DD8BF1A4603910B90029669
S2140044800A9207910C9019E6029941F008010291F0
S2140044901D78194625E51D7819462B2221E5029937
S2140044A041F0800102911D7819461AE5A5F1300009
S2140044B0002113F8015B01EB810100EB4101A5F13E
S2140044C030000928F5D906910CE5089904933023A5
S2140044D0029A8DF860300B460433782542F00202CB
S2140044E008937D4B1093B24602920E688DF8615089
S2140044F000270223A8E5029941F0010102911D78E8
S2140045001946EEE4089D29680691084600282946C3
S21400451001F10401C0F2EE8408911D781946E0E42A
S2140045200493029B8DF85F209806B2463FF55EAF77
S214004530029BD90600F19B82029B5A0640F19782A5
S2140045400899B1F900600431F71732463B460891E6
S21400455057E7029941F0400102911D781946C0E4E0
S2140045601D7802996C2D00F0BE8441F01001029176
S2140045701946B6E40493029B8DF85F209A0640F134
S214004580FD83089A05991368CF1708460432394602
S2140045900892C3E9000174E41D782A2D03F1010195
S2140045A000F02A86A5F1300009280B464FF00006D9
S2140045B03FF698AC13F8015B06EB860600EB460662
S2140045C0A5F130000928F5D946EAE6768AE4049390
S2140045D0029B43F010030293029B13F02003B246A3
S2140045E07FF48DAE029A12F0100240F03882029BE1
S2140045F013F0400300F03382089913460A4604324B
S2140046000E88089200271FE50493344B1093029BF4
S2140046108DF85F209906B2463FF5ABAE029BDA06F0
S21400462040F1D183089A134604331668089300278E
S214004630A8E6089904930A688DF8882000230122CA
S21400464004319C46039208918DF85F3022ABCDF87A
S2140046502CC0CDF830C007920A9335E50493029B30
S21400466043F010030293029BB2469E063FF5E2AC6F
S214004670029BD80640F19983089A134604321E68B6
S214004680089201230027DFE404938DF85F20002DB5
S2140046903FF4AFAC002301229C4603928DF888506D
S2140046A0D2E7DDF884B05BE5012B7FF4E5AC002FA4
S2140046B008BF0A2E80F0FF810DF1F00B30360BF8A4
S2140046C0416D2CABCBEB03030793CDF828B0EDE49C
S2140046D038C2010034C2010058C2010044C20100C1
S2140046E0652D40F38A80DDE90E010022002303F0E9
S2140046F027FE002800F03181209BAE4A226001335D
S2140047000BF1010B0122072BCDF884B020936260D9
S21400471000F372830834199B0D9A934203DB029BC5
S214004720DF077FF590AD209B1299119A2260013326
S2140047308B44072BCDF884B06160209300F3E183AF
S21400474008340D9B5D1E002D7FF77DAD102D209B40
S214004750994F40F3968110265A4604E00834103DDF
S214004760102D40F38D8101331032072B21922093B8
S21400477027606660F2DD404649461FAA02F084FFC5
S21400478000287FF43DAC219A209B2CACE7E7069BE3
S214004790039A9E1A002E7FF70AAD102E209A864F97
S2140047A01FDD4FF0100A5B4604E0103E102E04F1A9
S2140047B0080415DD01321033072A2193209284E87D
S2140047C08004F2DD404649461FAA02F05DFF00283D
S2140047D07FF416AC103E102E219B209A2CACE9DC00
S2140047E09B460132B344072ACDF884B02092276056
S2140047F0666000F31A820834D9E40D9B209D012BD5
S21400480040F3D5810A9B236001350BF10106012395
S214004810072D21962095636000F3E5810834129AEF
S214004820119B236001351644072D21962095626062
S21400483000F3EF8108340023DDE90E01002203F0C7
S2140048407FFD0D9B002840F0E1800A9A013B013570
S21400485001321E44072D209521962260636000F3E6
S214004860B6810834139A6260013506EB020B1BAB67
S214004870072DCDF884B0209523607FF7E3AC404643
S21400488049461FAA02F000FF00287FF4B9ABDDF806
S21400489084B02CACD7E4404649461FAA02F0F4FE8A
S2140048A000283FF41AADFFF7ABBB002B33D1029BB9
S2140048B0DA0730D50DF1F00B30230BF8413D2CAB69
S2140048C0CBEB03030793CDF828B0FFF7EFBB4046CA
S2140048D049461FAA02F0D8FE00287FF491ABDDF807
S2140048E084B02CAC9DE4404649461FAA02F0CCFE9C
S2140048F000287FF485ABDDF884B02CAC43E440465A
S21400490049461FAA02F0C0FE00287FF479ABDDF806
S21400491084B02CAC48E42CABCDF81CA00A93FFF76F
S214004920C5BB10980DF1B00B330906F00F0143EA32
S21400493007733A091E461746435C0BF8013D56EAD4
S2140049400703F1D15A462CAB9B1ACDF828B0079333
S214004950FFF7ACBB0223FFF777BB199D002D40F392
S21400496057820D9A0C998A421346A8BF0B461D46DD
S2140049700A99002D01EB020A0BDD209B2160013312
S214004980AB44072BCDF884B06560209300F3098311
S21400499008340C9B002DA8BF5B1B002B1D4640F364
S2140049A0B080102D209B044F40F31A8210265A46E2
S2140049B009E000BF74C2010024C201000834103DA3
S2140049C0102D40F30C8201331032072B21922093D6
S2140049D027606660F2DD404649461FAA02F054FE94
S2140049E000287FF40DAB219A209B2CACE7E74046CD
S2140049F049461FAA02F048FE00287FF401AB9DF846
S214004A005FC0DDF884B02CACFFF7AABB03F1FF3A19
S214004A10BAF1000F7FF726AFBAF1100F8F4FC8BF5D
S214004A204FF0100B07DCEAE00834AAF1100ABAF1DE
S214004A30100F40F3E48001351036072D219620959F
S214004A4084E88008F0DD404649461FAA02F01CFEB6
S214004A5000287FF4D5AA219E209D2CACE5E7089976
S214004A600A4604320E6808920027FFF7EDBA089A45
S214004A70166813460433F717089332463B46C0E4DD
S214004A8093460133AB44072BCDF884B020932760C0
S214004A9065607FF7D7ABF2E6302B00F03E820A9BCC
S214004AA0013B1A462CA80A93821A3023079201F873
S214004AB0013CFFF7FBBA0DF1B00BCDF80CC0304649
S214004AC039460A220023FEF7E9FD303230463946E1
S214004AD00BF8012D00230A22FEF7E0FD06460F46DE
S214004AE056EA0703EBD1DDF80CC02BE740464946F3
S214004AF01FAA02F0C9FD00287FF482AADDF884B060
S214004B002CAC0A9A0C99199B0A4416460D9A9342A5
S214004B103EDB029AD5073BD40D9AC6EB0A05D31A9C
S214004B209D42A8BF1D46002D2F460BDD209A26600D
S214004B300132AB44072ACDF884B06560209200F3BA
S214004B4066820834002FACBFDD1B1D46002D7FF7A4
S214004B507AAB102D209B414F93DD10265A4603E07A
S214004B600834103D102D8BDD01331032072B2192B7
S214004B70209327606660F3DD404649461FAA02F090
S214004B8083FD00287FF43CAA219A209B2CACE8E702
S214004B90209A12981199216001328344072ACDF891
S214004BA084B06060209200F308820834B4E7029B69
S214004BB0D8073FF527AE0A9B236001350BF10106A7
S214004BC00123072D2196209563607FF74AAE404665
S214004BD049461FAA02F058FD00287FF411AA219E1C
S214004BE0209D2CAC3EE6404649461FAA02F04CFDEE
S214004BF000287FF405AA219E209D2CAC0FE60135E7
S214004C005644072D2196209584E880047FF729AE28
S214004C10DDE7404649461FAA02F036FD00287FF42D
S214004C20EFA9219E209D2CAC05E6404649461FAACA
S214004C3002F02AFD00287FF4E3A9DDF884B02CAC4E
S214004C40FFF7B5BA4FF02D0C764267EB47078DF8A5
S214004C505FC0CDF82CA00123FFF7FCB924C20100E9
S214004C609DED0E0B02F052FC002800F0168125F098
S214004C702003BAF1FF3F039300F06082472B05D173
S214004C80BAF1000F14BFD3464FF0010B0F9B029AE8
S214004C90002B42F480720992C0F260829DED0E7B7A
S214004CA08DED147B4FF0000A662D00F05E81462DD8
S214004CB000F05B81039B452B0CBF0BF101075F46A1
S214004CC01AAA1DAB8DE80C0040469DED140B022180
S214004CD03A4619AB00F0DCFB672D0A9002D0472D50
S214004CE040F05181029BDB0740F141820A9BDE19AE
S214004CF0DDE914010022002303F022FB002840F027
S214004D00AD811D9B9E4206D930215A1C1D921970FA
S214004D101D9B9E42F9D80A9A9B1A0D93039B472B1C
S214004D20199B00F08381652D40F3A681662D0C93B8
S214004D3000F01F820D9B0C9A934200F30282029BA6
S214004D40D90700F1398222EAE2730792BAF1000F1E
S214004D5040F079810393099B0293CDF82CA09DF82F
S214004D605FC0FFF7ABB927F0070797ED007B07F1A9
S214004D7008038DED0E7B0893FFF763BB029BDB06F3
S214004D800BD4029B5F0608D5089A13680432089273
S214004D90BDF814201A80FFF774B8089A1368043216
S214004DA00892059A1A60FFF76CB8029B089A13F0EF
S214004DB0400F13463FF462AC1688043200270123E6
S214004DC00892FFF741B9029B089A13F0400F13466A
S214004DD076D00433168808930027FFF7D3BA934695
S214004DE00133AB44072BCDF884B020932760656071
S214004DF03FF77CAE083484E6404649461FAA02F0D8
S214004E0043FC00287FF4FCA8DDF884B02CAC82E4D8
S214004E10209BB04A226001330BF1010B0122072BC5
S214004E20CDF884B02093626050DC08342DB90D9B19
S214004E301BB9029BDE077FF506AA209B1299119AE2
S214004E40226001330BEB0102072B21926160209355
S214004E5000F3678108346D42002D6FDD102D9E4FE4
S214004E60C8BF102605DCB5E00834103D102D40F311
S214004E70B18001331032072B2192209327606660A1
S214004E80F2DD404649461FAA02F0FEFB00287FF4EA
S214004E90B7A8219A209B2CACE7E7029E8F4A904B3E
S214004EA09DF85FC00B90032126F08006472DD8BFE3
S214004EB01A46039102960C900A920791FFF7FEB8E5
S214004EC00433166808930027FFF75CBA4046494645
S214004ED01FAA02F0D9FB00287FF492A8199DDDF8DE
S214004EE084B02CACA2E741F0200102915D78591CF9
S214004EF0FEF7F7BF06980891404206901946FFF75E
S214004F00F1B9404649461FAA02F0BEFB00287FF4CE
S214004F1077A8DDF884B02CAC13E40A9A2CAB9B1A65
S214004F200793FFF7C3B8404649461FAA02F0ACFBFA
S214004F3000287FF465A8219A209B2CAC0D98606011
S214004F40013302EB000B072B0A9ACDF884B02093AE
S214004F5022607FF777A992E4CDF82CB0FEF720FF09
S214004F60089707900346FFF7F2B91AAA1DAB8DE81B
S214004F700C0040469DED140B03215A4619AB00F079
S214004F8087FA5F460A900A9BDE19039B462B7FF43E
S214004F90AFAE0A9B1B78302B00F00081199F3E4471
S214004FA0A6E6404649461FAA02F06EFB00287FF49C
S214004FB027A8DDF884B02CACEBE4404649461FAA8F
S214004FC002F062FB00287FF41BA8199BDDF884B072
S214004FD02CACA1E501332A44072B219220932760AD
S214004FE06560A0DC0834A9E7062E334628BF0623F2
S214004FF0079323EAE373DDF828C00393394B089739
S214005000CDF82CC0CDF830C00A93FFF757B840460D
S21400501049461FAA02F038FB00287EF4F1AF199B20
S2140050200D9ADDF884B0D31A2CAC8BE5DF1C22DB9E
S2140050309B4520DB0C9367257CE64FF02D0C8DF806
S2140050405FC0FFF710BA0393099B02934FF02D0C35
S21400505000238DF85FC00B93FFF733B833465AE64C
S21400506026EAE6730B9008970C909DF85FC00393B2
S2140050700796FFF723B8023D013B002B1993BABFF2
S2140050805B422D222B22092B8DF86C508DF86D205B
S21400509040F398800DF17B063046134A82FB0321CD
S2140050A0DA17C2EBA10202EB8201A3EB410303F184
S2140050B03001092A134600F8011DEEDC02463033A3
S2140050C0D9B202F8011D964240F2A9800DF16E0297
S2140050D003460DE074C2010024C2010040C2010074
S2140050E03CC201006CC201006766666613F8011BCD
S2140050F002F8011BB342F9D11FAB1B1A0DF16E0269
S21400510013441BAA9B1A0D9A1393012A1344079360
S21400511069DD079B0022013307930C9223EAE373B1
S21400512014E6404649461FAA02F0AEFA00287EF46E
S21400513067AF199D219A209B2CAC8CE64FF0060B8E
S214005140A4E50C9B002BD8BFC3F102060D9BC8BF7D
S2140051500126F318079323EAE373F7E5DDE90E016A
S21400516001F10043149015934FF02D0A9CE51D9B0A
S214005170D1E5002B2EDDBBF1000F07D1029BDE0729
S21400518004D40C9A079222EAE273DFE50C9B0BF13B
S21400519001063344079323EAE373D7E5DDE91401F8
S2140051A00022002303F0CCF800287FF4F7AEC7F106
S2140051B0010719973E449BE50C9B0133079323EAAE
S2140051C0E373C3E5303330228DF86F308DF86E20F0
S2140051D01CAB96E7BBF1000F1BD1029BD80718D477
S2140051E001230793B2E5029B13F0010391D10C93C0
S2140051F0079B23EAE373A9E5089D2E68284604303A
S214005200002E5D780890BEF66CAE4FF0FF36FEF7C7
S21400521068BE0BF10203079323EAE37396E50DF1EC
S2140052206E036EE72DE9F0420C46ADF58D6DB1F8D4
S2140052300CE0E769496EB4F80E9019911AAD4FF478
S21400524080662EF0020E4FF0000C07976946676ADC
S2140052500095049502960596ADF80CE0ADF80E9014
S2140052600997CDF818C00646FEF7CAFD051E07DBEF
S2140052703046694601F008F9002818BF4FF0FF35A0
S214005280BDF80C305B0603D5A38943F04003A38129
S21400529028460DF58D6DBDE8F08200BF38B52F4B62
S2140052A01B6805460C4613B19A6B002A36D0A289B5
S2140052B093B218070CD52069A8B113F001021ED0CE
S2140052C0636900225B42A361A260F0B1002038BD92
S2140052D0D9063BD5580725D4206942F00803A38198
S2140052E09BB20028E9D103F42072B2F5007FE4D027
S2140052F02846214601F0C4FAA3892069DDE799070C
S21400530058BF6269A2600028E0D1A3891A06DED5DC
S21400531043F04003A3814FF0FF3038BD184601F03C
S21400532047F9C4E7216B49B104F14003994203D021
S214005330284601F095F9A2890023236322F024026F
S21400534000232069636092B22060C6E742F0400204
S21400535009232B604FF0FF30A28138BD28040020BF
S21400536002690B69934200F38F802DE9F04F03F139
S214005370FF3801F1140700F1140B57F828205BF8EA
S21400538028304FEA880483B00132B3FBF2F90BEB06
S2140053900403009407EB040A0193B9F1000F3BD015
S2140053A000263246BC46DE4634465CF8046BDEF821
S2140053B00050B3B2360C03FB094406FB09F606EBB5
S2140053C01446A3B2D31AB4B213FA85F3C4EB154449
S2140053D004EB23449BB243EA0443E2454FEA2442EB
S2140053E04EF8043B4FEA1644DFD2009B5BF80330CE
S2140053F093B9019C231F9B450CD254F8043C4BB92F
S214005400A4F1080302E01A68043B1AB99B4508F1A8
S214005410FF38F8D3C0F81080044601F08BFF002850
S2140054202EDB09F101095D46002357F8041B2868A6
S2140054308AB29A1A090C12FA80F2C1EB104303EBF7
S214005440224391B241EA0341BA4545F8041B4FEAAC
S2140054502343EAD25BF828200BEB880382B91A1F95
S21400546093450BD253F8042C42B9083B02E01A6865
S214005470043B1AB99B4508F1FF38F8D3C4F81080EE
S214005480484603B0BDE8F08F0020704700000000DB
S2140054902DE9F04F99B004460391016C229D0493C8
S2140054A092468DED000B41B1426C4A600123934059
S2140054B08B6001F05BFD00232364DDE90023002BF5
S2140054C0994636DB00232B60A54B1A4609EA0303F0
S2140054D0934217D0DDE900670022002330463946A4
S2140054E002F02EFF804600282BD0049A012313607A
S2140054F0239B002B00F0CC809A481860013819B026
S214005500BDE8F08F049A42F20F731360009B002BE5
S21400551000F0A7809448239B002BF0D0C378002B84
S21400552000F0B88000F10803239A136019B0BDE8B4
S214005530F08F019A012322F000492B60CDF80490E9
S214005540C2E7204647EC106B17A916AA01F080FFA9
S2140055505FEA1955834640F08D80DDF85880179D28
S2140055606FF4826345449D42C0F29E827F4A521B7E
S21400557009FA02F9009A05F2124322FA03F049EA00
S2140055800000FDF7B3FD0123013DA1F1F8710F9373
S2140055900022774BFDF76CFC6BA3D3E90023FDF7E5
S2140055A01BFE6BA3D3E90023FDF764FC06462846E2
S2140055B00F46FDF7ABFD68A3D3E90023FDF70CFE0D
S2140055C002460B4630463946FDF754FC06460F4663
S2140055D002F0E8FE3946059000223046002302F02D
S2140055E0B9FE002840F0AB81059B162B00F2A48183
S2140055F0059A604B03EBC203D3E90001DDE9002303
S21400560002F0C6FE002800F05582059B013B05937C
S21400561000230D93C5EB08056B1E069300F1A681CB
S21400562000230793059B002BC0F29781069A0C93E4
S21400563011461944002306910A93039B092B2BD885
S214005640052B40F37386043B03930027039B023B22
S214005650032B00F25186DFE813F0D103C403B60231
S2140056606606414B444AC9F31300002814BF184687
S214005670104650E7C7F3130343F07F51CDF83C8044
S2140056803046A5F2FF3541F44011DDF858807FE73B
S2140056903A4834E7C31C47E70021616420468A463F
S2140056A0039101F03DFC4FF0FF3308930E93012366
S2140056B0099020640B93179B002BC0F2D380059AA9
S2140056C00E2A00F3CF802B4BBAF1000F03EBC20378
S2140056D0D3E90089C0F29583DDE9006742464B4670
S2140056E030463946FDF7A2FE02F05CFE8246FDF724
S2140056F00DFD42464B46FDF76FFD0B46024639460A
S2140057003046FDF7B5FB099D0AF130032B70089B68
S214005710012B06460F4605F1010563D00022184B03
S214005720FDF75AFD0022002306460F4602F008FE4B
S214005730002840F08480CDF800B00394DDF824B053
S214005740089C2AE0AFF3008061436F63A787D23FCF
S214005750B3C8608B288AC63FFB799F501344D33F5B
S2140057600000F07F75C2010094C201000EFCFFFF2E
S2140057700000F83FA8C2010088C2010074C2010000
S21400578000002440FDF728FD0022002306460F46B1
S21400579002F0D6FD002840F0E48342464B463046F1
S2140057A03946FDF743FE02F0FDFD8246FDF7AEFCEE
S2140057B042464B46FDF710FD02460B46304639463C
S2140057C0FDF756FB0AF1300E05F801EBCBEB050EA4
S2140057D0744506460F464FF00002B74BD2D1DDF8AF
S2140057E000B0039C32463B4630463946FDF742FB46
S2140057F006460F464046494632463B4602F0AAFD5C
S21400580048B94046494632463B4602F099FDB0B19B
S2140058101AF0010F13D015F8018C09996B1E04E0DD
S2140058208B4200F0488413F8018DB8F1390F03F16C
S21400583001051A46F4D008F10103DBB213702046C6
S214005840594601F093FB0022059B2A70049A013307
S2140058501360239B002B00F04B8309981D6019B042
S214005860BDE8F08F0B9A002A00F08580039A012A83
S21400587040F30A83089B5F1E0A9BBB42C0F2A683C6
S214005880DF1B089B002BC0F2A484079D089B079A89
S2140058901A440792069A20461A440121069201F0FD
S2140058A0FFFB064665B1069900290B4608DDA942AE
S2140058B0079AA8BF2B46D21AED1ACB1A0792069360
