S0110000746573745F626C696E6B2E733337B4
S113000000800020E503000011040000110400003A
S11300101104000011040000110400001104000088
S11300201104000011040000110400001104000078
S1130030110400001104000011040000650E00000A
S11300401104000011040000110400001104000058
S11300501104000011040000110400001104000048
S11300601104000011040000110400001104000038
S11300701104000011040000110400001104000028
S11300801104000011040000110400001104000018
S11300901104000011040000110400001104000008
S11300A011040000110400001104000011040000F8
S11300B011040000110400001104000011040000E8
S11300C011040000110400001104000011040000D8
S11300D011040000110400001104000011040000C8
S11300E010B5054C237833B9044B13B10448AFF36E
S11300F000800123237010BD740000200000000064
S113010080100000084B10B51BB108480849AFF334
S113011000800848036803B910BD074B002BFBD0CF
S1130120BDE81040184700BF000000008010000028
S1130130780000207000002000000000154B002B08
S113014008BF134B9D46A3F5803A00218B460F460A
S11301501348144A121A00F071FF0F4B002B00D001
S113016098470E4B002B00D0984700200021040034
S11301700D000D48002802D00C48AFF3008000F0B9
S113018037FF2000290000F0BBFE00F01DFF00BF78
S113019000000800008000200000000000000000B3
S11301A074000020980000200000000000000000FF
S11301B080B483B000AF03463960FB71FB79002B38
S11301C00DD0FB79012B0AD0FB79022B07D0FB79E8
S11301D0032B04D0FB79042B01D0FB79052B0949AF
S11301E0FA793B68012000FA03F318461346DB0052
S11301F013449B000B44103318600C37BD465DF864
S1130200047B70470060004080B582B000AF1248A4
S1130210012100F073FB1148012100F06FFB002362
S11302207B6011E00E4A7B6812F833100C4A7B683D
S1130230DB0013445B68084619460422002300F0DF
S113024085FD7B6801337B607B68012BEADD00233D
S113025018460837BD4680BD4081040000D2040022
S11302606810000080B582B000AF78607B68002B16
S113027011DB7B68012B0EDC0A4A7B6812F8331011
S1130280084A7B68DB0013445B6808461946FFF79D
S11302908FFF002301E04FF0FF3318460837BD46B7
S11302A080BD00BF6810000080B582B000AF394A3D
S11302B0384B5B6C43F400535364374A364BD3F8E2
S11302C0203143F00403C2F82031334A324BD3F8CF
S11302D0203123F44073C2F820312F4A2E4BD3F837
S11302E0B83023F47063C2F8B8302B4A2A4BD3F8E1
S11302F0B83043F48063C2F8B830264B10221A6237
S113030000BF244BDB6A03F02003002BF9D0234AFF
S1130310224B1B6843F001031360204A1F4BDB6828
S113032043F08073D3601E4B1E4A1A601E4800F0CF
S11303304FFB034603F5D52303F2FC437B607B6844
S1130340DB081A4AA2FB03239B0A3B60184A3B685A
S1130350013B1361164B0222C3F8F020144B4FF4F7
S11303608072C3F804234FF06043124AC3F8B02FDD
S11303704FF06043104AC3F8802E4FF060424FF0B4
S11303806043D3F8003E43F00103C2F8003E08374F
S1130390BD4680BD00800C4000600040F0ED00E0F0
S11303A0001000E0FF13014006000C0017916502E5
S11303B0000004E055CEACC50900010080B582B050
S11303C000AF4FF07E637B607B681B68002B01D11C
S11303D0002302E0FFF768FF012318460837BD46F3
S11303E080BD00BF064880470649074A074B9A422A
S11303F0BEBF51F8040B42F8040BF8E7FFF79EFE6A
S1130400650500008C10000000000020740000202E
S1130410FEE700BF80B400AF044BDB6C1B0EDBB205
S11304201846BD465DF8047B704700BFB081E00FFD
S113043080B582B000AF00F015F87860074B5B68B8
S113044003F00F031A467B68D3407B60044A7B6841
S113045013607B6818460837BD4680BD00800C4099
S11304609400002080B582B000AF334BDB6A03F404
S11304707053B3F5805F0AD0B3F5005F03D0B3F5D2
S1130480006F08D00BE02D4B1B687B6047E04FF4F6
S113049000437B6043E02A4B1B687B603FE0264BB4
S11304A0DB6803F4E063B3F5007F1BD0B3F5007F92
S11304B005D8002B24D0B3F5807F16D02BE0B3F5FC
S11304C0806F09D0B3F5A06F03D0B3F5407F06D099
S11304D021E01C4B7B6021E01B4B7B601EE01B4B2F
S11304E07B601BE01A4B7B6018E0FFF793FF034629
S11304F0122B02D9174B7B6010E0174B7B600DE089
S1130500FFF788FF0346122B02D9144B7B6005E0EA
S1130510134B7B6002E000237B6000BF00BF064BEF
S11305201B6803F4E0339B0B01337A68B2FBF3F3EB
S113053018460837BD4680BD00800C4004000020EA
S113054000000020003FAB01406F4001809FD500B8
S1130550C0D8A70040B56400C0CF6A00804F120025
S113056040420F0080B400AF054A054BD3F88830F1
S113057043F47003C2F88830BD465DF8047B7047CD
S113058000ED00E080B400AF4FF400431846BD46D0
S11305905DF8047B704700BF80B400AF4FF47A73FA
S11305A01846BD465DF8047B704700BF80B400AFB9
S11305B0034B1B681846BD465DF8047B704700BFBB
S11305C00400002080B487B000AFF860B9607A609E
S11305D0FB6803F10473DA00BB6813449B007B617E
S11305E07B697A681A601C37BD465DF8047B7047E6
S11305F080B485B000AF786039607B6803F1047320
S1130600DA003B6813449B00FB60FB681B681846D8
S11306101437BD465DF8047B704700BF80B400AF5B
S1130620044BDB6C1B0EDBB21846BD465DF8047B45
S1130630704700BFB081E00F80B584B000AF786030
S113064039607A683B689A428CBF01230023DBB28D
S1130650FB6006481E21FA68FFF7B4FF044808212E
S1130660FA68FFF7AFFF1037BD4680BD00800C402D
S113067004800C4080B582B000AF07481E21FFF70C
S1130680B7FF786005480821FFF7B2FF38607B6840
S113069018460837BD4680BD00800C4004800C40DD
S11306A080B582B000AF214B5B6903F4E063B3F51E
S11306B0007F1CD0B3F5007F05D8002B25D0B3F5FF
S11306C0807F1FD02AE0B3F5C06F24D0B3F5E06F6C
S11306D01ED0B3F5407F21D1FFF7A0FF0346122BB4
S11306E002D9134B7B601CE0124B7B6019E0FFF7CF
S11306F095FF0346122B02D90F4B7B6011E00F4B81
S11307007B600EE00E4B7B600BE00E4B7B6008E0E1
S11307100D4B7B6005E00D4B7B6002E000237B60AA
S113072000BF7B6818460837BD4680BD00800C407A
S1130730804F120040420F0040B56400C0CF6A00F1
S1130740C0D8A700809FD500406F4001003FAB0197
S113075080B582B000AF0D4800F0F2F90346FB709B
S1130760FB78072B05D0082B07D1FFF77BFE7860B9
S113077006E0FFF795FF786002E000237B6000BF8E
S11307807B6818460837BD4680BD00BF06000C00D4
S113079090B585B000AF78600023BB607B68344AB5
S11307A0934203D0334A934200D000E000BF7868FC
S11307B000F0C6F90346FB607B682D4A934203D0E0
S11307C02C4A934206D00CE02B4B9B6A03F00303A4
S11307D0FB6006E0284B9B6A03F00C039B08FB605C
S11307E000BFFB68032B3AD801A252F823F000BFE4
S11307F02708000001080000090800001108000093
S1130800FFF7C0FEB8602DE0FFF7D0FEB86029E026
S1130810FFF70EFE0446FFF72DFF0346013324FACB
S113082003F3BB601EE00023BB607B68104A934265
S113083003D07B680F4A934210D10F4B9A6A7B68AE
S11308400B498B4201D1102300E0142322FA03F355
S1130850002B03D0FFF7A0FEB86003E002E0002302
S1130860BB6000BFBB6818461437BD4690BD00BFCF
S113087002001A0003001C0000800C4080B483B006
S113088000AF7860094B5B6D03F00103002B00D0CF
S113089006E000BF054B1A6D7B681340002BF9D1AD
S11308A00C37BD465DF8047B704700BF00800C40E8
S11308B080B582B000AF104800F042F90346FB70E7
S11308C0FB78032B07D0082B09D0022B0BD1FFF7A1
S11308D06DFE78600AE0FFF755FE786006E0FFF7EA
S11308E0C1FD786002E000237B6000BF7B6818468E
S11308F00837BD4680BD00BF0723220080B586B0FF
S113090000AF78600B46FB7000233B617B681B0AD9
S113091003F00F03013B092B46D801A252F823F040
S11309205F0900006509000049090000A9090000E9
S1130930A90900006B09000075090000A90900005D
S1130940A90900007F090000194B7B61194800F0D8
S11309503FF8034618461849FFF76EFE12E0174B9E
S11309607B610FE0164B7B610CE0164B7B6101232E
S11309703B6107E0144B7B6110233B6102E0134BA6
S11309807B6100BF7B681B0B03F01F03FB603B69AB
S1130990002B02D03869FFF771FFFB787869F9689A
S11309A01A46FFF70FFE00E000BF1837BD4680BDB2
S11309B040800C400043020000366E0108800C4069
S11309C044800C4058800C4060800C4078800C407F
S11309D080B584B000AF78607B6803F47813B3F516
S11309E0A01F57D0B3F5A01F16D8B3F5802F2ED073
S11309F0B3F5802F05D8002B25D0B3F5003F32D0B6
S1130A008FE0B3F5602F00F08480B3F5801F33D0FE
S1130A10B3F5402F79D084E0B3F5D01F27D0B3F5D8
S1130A20D01F06D8B3F5B01F54D0B3F5C01F5ED0A5
S1130A3077E0B3F5081F70D0B3F5281F38D0B3F5AD
S1130A40E01F42D06DE0FFF70DFDF8606CE0FFF7AA
S1130A5009FDF860374B9B6803F00F031A46FB68E7
S1130A60D340FB6060E0FFF7E3FCF8605CE03248F1
S1130A70FFF78EFEF86057E02F48FFF789FEF86015
S1130A802C4B9B6E03F0F0031B091A46FB68D34002
S1130A90FB6049E02848FFF77BFEF860254B9B6E1E
S1130AA003F470631B0A1A46FB68D340FB603BE007
S1130AB02148FFF76DFEF8601E4B9B6E03F00303A5
S1130AC01A46FB68D340FB602EE01C48FFF760FE2B
S1130AD0F86029E01948FFF75BFEF860154B1B6FBF
S1130AE003F003031A46FB68D340FB601CE0134881
S1130AF0FFF74EFEF8600F4B1B6F03F030031B092A
S1130B001A46FB68D340FB600EE0FFF721FEF86055
S1130B100AE0FFF7C5FDF86006E0FFF7C9FEF860DC
S1130B2002E00023FB6000BFFB6818461037BD4697
S1130B3080BD00BF00800C4002001A0003001C00AE
S1130B4080B485B000AF78600123FB737B6803F049
S1130B500F03BB60BB68013B062B00F2938001A22C
S1130B6052F823F0810B0000B70B0000F30B0000D8
S1130B70850C0000850C00002F0C0000510C0000B7
S1130B80454BDB6A03F47053B3F5805F09D0B3F5CA
S1130B90005F03D0B3F5006F06D008E00223FB73B7
S1130BA008E00323FB7305E00423FB7302E0052341
S1130BB0FB7300BF69E0384B9B6A03F00303022B0D
S1130BC006D0032B07D0012B08D10323FB730FE0BE
S1130BD00223FB730CE00623FB7309E02E4B9B6A94
S1130BE003F48033002B02D00923FB7300E000BF21
S1130BF04BE0294B9B6A03F00C03082B06D00C2B0B
S1130C0007D0042B08D10323FB730FE00223FB73EB
S1130C100CE00623FB7309E01F4B9B6A03F480136B
S1130C20002B02D00923FB7300E000BF2DE01A4B18
S1130C301B6803F08053002B03D0B3F1805F03D013
S1130C4023E00723FB7302E00823FB7300BF1CE0CF
S1130C50114BDB6A03F46033B3F5803F08D0B3F57E
S1130C60003F08D0B3F5004F08D10823FB7308E018
S1130C700223FB7305E00323FB7302E00123FB73F0
S1130C8000BF02E00023FB7300BFFB7B1846143750
S1130C90BD465DF8047B704700800C4080B483B08F
S1130CA000AF03463960FB71FB79002B0DD0FB7953
S1130CB0012B0AD0FB79022B07D0FB79032B04D03C
S1130CC0FB79042B01D0FB79052B0949FA793B68A0
S1130CD0012000FA03F318461346DB0013449B007B
S1130CE00B44103358600C37BD465DF8047B7047E5
S1130CF00060004080B483B000AF03463960FB71EC
S1130D00FB79002B0DD0FB79012B0AD0FB79022B48
S1130D1007D0FB79032B04D0FB79042B01D0FB799A
S1130D20052B0949FA793B68012000FA03F31846B8
S1130D301346DB0013449B000B44103318600C373C
S1130D40BD465DF8047B70470060004090B585B0F7
S1130D5000AFB9607B600346FB731346BB73FB7B38
S1130D60002B0DD0FB7B012B0AD0FB7B022B07D081
S1130D70FB7B032B04D0FB7B042B01D0FB7B052BDB
S1130D80BB7B002B0DD07B68002B05D0FB7B18466A
S1130D90B968FFF7AFFF04E0FB7B1846B968FFF7BB
S1130DA07DFFBB68072B1CD82A4CFA7B2948F97BAA
S1130DB00B46DB000B449B0003445968BB689B0053
S1130DC018460F238340DB430B40B97BB86880008F
S1130DD0814019431346DB0013449B0023445960AC
S1130DE024E01C4CFA7B1B48F97B0B46DB000B44CC
S1130DF09B00034408331968BB6803F18043083B34
S1130E009B0018460F238340DB431940B87BBB6823
S1130E1003F18043083B9B0000FA03F31943134694
S1130E20DB0013449B00234408331960BB7B002B75
S1130E300DD17B68002B05D0FB7B1846B968FFF702
S1130E4059FF04E0FB7B1846B968FFF727FF143706
S1130E50BD4690BD0060004080B400AFBD465DF863
S1130E60047B704780B400AF044B1B680133034A12
S1130E701360BD465DF8047B704700BF90000020FE
S1130E8080B483B000AF0346FB80134A124B5B6C03
S1130E9043F040035364114A104B1B6823F0706302
S1130EA043F0206313600D4B00225A620B4B012266
S1130EB05A6000BF094B596AFA8813469B001344D1
S1130EC05B009942F6D3054B02225A600C37BD46AB
S1130ED05DF8047B704700BF00800C4000040140B3
S1130EE080B582B000AF786039607A683B680220D0
S1130EF011460422FFF72AFF0837BD4680BD00BF14
S1130F0080B500AFFFF7A8FFFFF758FA02200021D1
S1130F1000220023FFF71AFF0220012100220023F0
S1130F20FFF714FF022002210A220123FFF70EFF1C
S1130F30022003210A220123FFF708FF02200421D3
S1130F4000220023FFF702FF0220052104220023D0
S1130F50FFF7FCFE0220062100220023FFF7F6FE25
S1130F600220072100220023FFF7F0FE02200821BF
S1130F7000220023FFF7EAFE0220092100220023B9
S1130F80FFF7E4FE02200A2100220023FFF7DEFE21
S1130F9002200B2100220023FFF7D8FEFFF734F9CB
S1130FA00020FFF75FF905200121FFF799FF4FF4B7
S1130FB07A70FFF765FF05200021FFF791FF4FF4DA
S1130FC07A70FFF75DFFEEE708B5074B044613B1EF
S1130FD00021AFF30080054B1868836A03B198477A
S1130FE0204600F033F800BF000000007C10000031
S1130FF070B50E4B0E4CE41AA41000251E46A542F3
S113100004D056F8253098470135F8E700F020F869
S1131010084C094BE41AA41000251E46A54204D02E
S113102056F8253098470135F8E770BD6800002070
S1131030680000206C000020680000200244034681
S1131040934202D003F8011BFAE77047FEE700BFA2
S1131050F8B500BFF8BC08BC9E467047F8B500BFA1
S1131060F8BC08BC9E467047040000000200000063
S113107004000000030000004300000008000020FA
S10710800000000068
S10B1084B8F0FF7F0100000039
S113108C006CDC0200800000000000000000000086
S113109C0000000000000000000000000000000040
S11310AC00000000000000007810000000000000A8
S11310BC0000000000000000000000000000000020
S11310CC0000000000000000000000000000000010
S11310DC0000000000000000000000000000000000
S11310EC000000000000000005010000E100000009
S10710FC00000000EC
S90303E514
