:100000000080002099020000C5020000C502000027
:10001000C5020000C5020000C5020000C5020000C4
:10002000C5020000C5020000C5020000F10A000080
:10003000C5020000C5020000810B0000E50B0000B6
:10004000C5020000C5020000C5020000C502000094
:10005000C5020000C5020000C5020000C502000084
:10006000C5020000C5020000C5020000C502000074
:10007000C5020000C5020000C5020000C502000064
:10008000C5020000C5020000C5020000C502000054
:10009000C5020000C5020000C5020000C502000044
:1000A000C5020000C5020000C5020000C502000034
:1000B000C5020000C5020000853E0000C502000028
:1000C000C5020000C5020000C5020000C502000014
:1000D000C5020000C5020000C5020000C502000004
:1000E00010B5054C237833B9044B13B10448AFF372
:1000F00000800123237010BD7C0000200000000060
:10010000A4510000084B10B51BB108480849AFF3D3
:1001100000800848036803B910BD074B002BFBD0D3
:10012000BDE81040184700BF00000000A4510000C7
:10013000800000207800002000000000154B002BFC
:1001400008BF134B9D46A3F5803A00218B460F460E
:100150001348144A121A04F028F80F4B002B00D051
:1001600098470E4B002B00D0984700200021040038
:100170000D000D48002802D00C48AFF3008003F0BA
:10018000E3FF2000290003F08FFF03F0C9FF00BF49
:1001900000000800008000200000000000000000B7
:1001A0007C000020702500200000000000000000FE
:1001B0002A492B4B4A6C42F400524A64D3F820215E
:1001C00042F00402C3F82021D3F8202122F4407227
:1001D000C3F82021D3F8B82022F47062C3F8B82005
:1001E000D3F8B820102042F48062C3F8B8200A4641
:1001F0000862D36A9B06FCD51A4B1B491A681B4838
:1002000042F0010270B51A60DA68194C194D42F0DB
:100210008072DA600C6002F073FF00F5D52000F206
:10022000FC40154B1549164CC008A3FB00239B0A44
:100230004FF06042013B02264FF480700B61C1F821
:10024000F060C1F80403C2F8B05FC2F8804ED2F883
:10025000003E43F00103C2F8003E70BD00800C4038
:1002600000600040F0ED00E0001000E006000C002F
:10027000FF13014055CEACC517916502000004E0A4
:100280000900010008B54FF07E63186810B1FFF750
:100290008FFF012008BD00BF064880470649074A76
:1002A000074B9A42BEBF51F8040B42F8040BF8E723
:1002B000FFF744FF89040000B05100000000002057
:1002C0007C000020FEE700BF294AD36A03F4705384
:1002D000B3F5805F2AD0B3F5005F24D0B3F5006F8B
:1002E00011D0D36803F4E063B3F5007F3DD020D98B
:1002F000B3F5806F37D0B3F5A06F32D0B3F5407F40
:1003000024D0002301E01B4B1B68194A1A491068CE
:100310005268C0F3823002F00F020130B3FBF0F0FC
:10032000D04008607047154B1B68EEE74FF4004360
:10033000EBE76BB1B3F5807FE3D1114B114AD86C79
:10034000114BB0F1985F28BF1346DEE70F4BDCE797
:100350000B4B0F4AD86C0F4BB0F1985F28BF134678
:10036000D3E70D4BD1E70D4BCFE70D4BCDE700BFEA
:1003700000800C40040000200C250020000000201C
:10038000B081E00F40B56400C0CF6A00809FD50007
:10039000804F120040420F00003FAB01406F400110
:1003A000C0D8A70000487047006CDC02274AD36A17
:1003B00003F47053B3F5805F24D0B3F5005F1ED013
:1003C000B3F5006F11D0D36803F4E063B3F5007F99
:1003D00039D01AD9B3F5806F33D0B3F5A06F2ED0D2
:1003E000B3F5407F1FD0002001E0194B1868174B70
:1003F0001B68C3F382330133B0FBF3F07047154B36
:100400001868F4E74FF40040F1E773B1B3F5807F6B
:10041000E9D1114A114BD06C114AB0F1985F2CBF51
:1004200018461046E3E70F48E1E70B4A0E4BD06C45
:100430000E4AB0F1985F2CBF18461046D7E70C481B
:10044000D5E70C48D3E70C48D1E700BF00800C404B
:100450000400002000000020B081E00F40B56400DF
:10046000C0CF6A00809FD500804F120040420F002D
:10047000003FAB01406F4001C0D8A700014B186896
:10048000704700BF04000020034AD2F8883043F4CC
:100490007003C2F88830704700ED00E04FF4004070
:1004A000704700BF4FF47A70704700BF014B186867
:1004B000704700BF0000002010B5294C00202146E5
:1004C000024603F021FB21460120002203F01CFB21
:1004D00021460220002203F017FB214603200022C0
:1004E00003F012FB21460420002203F00DFB2146FD
:1004F0000520002203F008FB21460620002203F01D
:1005000003FB21460720002203F0FEFA00200246EA
:10051000FF2103F067FB0120FF21002203F062FBB3
:100520000220FF21002203F05DFB0320FF210022B7
:1005300003F058FB0420FF21002203F053FB0520A9
:10054000FF21002203F04EFB0620FF21002203F0D2
:1005500049FB0720FF210022BDE8104003F042BB09
:1005600000F00FF010B5274C27490720002203F0B8
:10057000CBFA21460620002203F0C6FA21460520C8
:10058000002203F0C1FA21460420002203F0BCFA45
:1005900021460320002203F0B7FA21460220002260
:1005A00003F0B2FA21460120002203F0ADFA002048
:1005B00002464FF0204103F0A7FA0720014600222F
:1005C00003F010FB06200721002203F00BFB05209F
:1005D0000721002203F006FB04200721002203F07C
:1005E00001FB03200721002203F0FCFA022007216F
:1005F000002203F0F7FA012007210022BDE8104095
:1006000003F0F0BA00E00FF000E00F5010B5012148
:100610000446224802F08AFE2148032102F0E0FE4F
:100620004021204802F0A8FA012003F089F80121B6
:100630001D4802F07BFE1D4B1D489A6A00229A62FB
:1006400003F096F90820012103F0CCF910200121D4
:1006500003F0C8F98020012103F0C4F94FF4807041
:10066000012103F0BFF94FF40070012103F0BAF942
:1006700034B9FFF721FF0D4A536E002BFCD110BD9A
:100680004FF4402003F016FB4FF4803003F09CF948
:10069000084AD36F43F00803D367EAE70043020038
:1006A00002001A00600026000036280000A0084062
:1006B000184C000000800C402DE9F843074603F079
:1006C000A1FD5E4A8146566E5C4B002EFBD1012295
:1006D0001A66FFF747FF5A4CDFF8688136E06A0771
:1006E000217CA07849D42B07617CE0784CD4EA06C1
:1006F000A17C20794FD4AB06E17C607952D46A06A4
:10070000217DA07955D42B06617DE07958D4EA0586
:10071000A17D207A5BD4AB05E17D607A5ED46A0569
:10072000217EA07A61D42B05617EE07A64D4EA044C
:10073000A17E207B67D4AB04E17E607B6AD4013666
:10074000072E07F1010704F11C046DD0B145C8BFA5
:100750003B78A17B2078CCBF203B002338F8135096
:10076000EA0766D4AB07E17B6078B8D5012203F0D5
:1007700045F96A07217CA078B5D5012203F03EF93E
:100780002B07617CE078B2D5012203F037F9EA0645
:10079000A17C2079AFD5012203F030F9AB06E17CD2
:1007A0006079ACD5012203F029F96A06217DA07990
:1007B000A9D5012203F022F92B06617DE079A6D5A7
:1007C000012203F01BF9EA05A17D207AA3D50122BD
:1007D00003F014F9AB05E17D607AA0D5012203F0A6
:1007E0000DF96A05217EA07A9DD5012203F006F954
:1007F0002B05617EE07A9AD5012203F0FFF8EA0426
:10080000A17E207B97D5012203F0F8F8AB04E17EAE
:10081000607B94D50122013603F0F0F8072E07F132
:10082000010704F11C0491D1044B00221A66BDE8B3
:10083000F883012203F0E2F894E700BF00A008402B
:10084000184A00002C4C00000B4A0C4B10B50C4C05
:10085000106000221A705A70216003F053FAC30529
:1008600000D410BD03F030FA2368002BF9D0042027
:10087000BDE81040184700BF9C000020A0000020E9
:100880009800002038B502F075FF184B1A7804461E
:10089000A2B95B78FBB9164B1B680BB103209847D4
:1008A000012002F0E3FF0325124B1B680BB1284621
:1008B0009847204602F062FF284638BD0C4B1B6863
:1008C0000BB1012098470C4A136923F0040313610C
:1008D00030BF0125E8E7064B1B680BB102209847A3
:1008E000012002F04FFF0225DEE700BFA00000203C
:1008F0009C0000209800002000ED00E070B5851EEF
:10090000EBB2012B04460AD91148FB2102F04CF846
:10091000104B1C4414F8023CFF2B0CD070BD0D4E44
:10092000735DFF2B0DD00133022C7355F6D10A4BAA
:1009300001221A6070BD0648FC21BDE8704002F03B
:1009400033B80348FC2102F02FF8735DEBE700BFDA
:10095000E44C0000A000002004008C4338B543079D
:1009600004461CBF20F00704083401F061F90E4B67
:100970001D689DB10D4A136842F21F311C448C4220
:1009800007D8A34205D21D44146001F02BFA284673
:1009900038BD002501F026FA284638BD044D25F063
:1009A00007051D60E6E700BFD0230020A40000205B
:1009B000B000002018B10248AB2101F0F5BF70472C
:1009C0004C4D000000F108034FF0FF310022816020
:1009D00080E80C00C3600361704700BF002303611F
:1009E000704700BF90E80C0010B49C688C609C6855
:1009F0004B600132616099605DF8044B08610260F0
:100A0000704700BF30B40D686B1C11D000F10802B4
:100A100000E01A4653681C68A542FAD204684B608D
:100A2000013499608A6051600861046030BC70478D
:100A300002695368F2E700BF43688168026910B435
:100A40009960816854684B601368844208BF5160A4
:100A5000013B002101615DF8044B136018467047AB
:100A600006480068006880F3088862B661B6BFF384
:100A70004F8FBFF36F8F00DF00BF000008ED00E075
:100A8000DFF80C00016841F470010160704700005C
:100A900088ED00E008B5094B1B68013304D0084815
:100AA00040F20B1101F080FF4FF0BF0383F3118878
:100AB000BFF36F8FBFF34F8FFEE700BF080000202A
:100AC000D04D000030B421F001014FF08075074C8B
:100AD00040F80C4C6FF0020340F8202C00E9220093
:100AE00040F8243C30BC4438704700BF950A0000F1
:100AF000074B19680868B0E8F04F80F30988BFF326
:100B00006F8F4FF0000080F311887047AFF30080C3
:100B10005C2400204FF0BF0383F31188BFF36F8F75
:100B2000BFF34F8F084A13680133012B136000D0C5
:100B30007047064B1B6813F0FF0FF9D0044840F2D2
:100B4000A31101F031BF00BF0800002004ED00E058
:100B5000D04D000010B5084C23682BB1013B236039
:100B60000BB983F3118810BD04484FF4D57101F01F
:100B70001BFF2368F2E700BF08000020D04D0000F3
:100B8000EFF30980BFF36F8F154B1A681EF0100F3B
:100B900008BF20ED108A20E9F04F10604DF8043DA9
:100BA0004FF0BF0080F31188BFF34F8FBFF36F8FFB
:100BB00001F08CFA4FF0000080F3118808BC19682E
:100BC0000868B0E8F04F1EF0100F08BFB0EC108AB4
:100BD00080F30988BFF36F8F704700BFAFF30080C9
:100BE0005C24002008B54FF0BF0383F31188BFF3E6
:100BF0006F8FBFF34F8F01F041F818B1034B4FF0E7
:100C000080521A60002383F3118808BD04ED00E0D0
:100C100010B52F4A2F4B12689A4282B04BD02C4A03
:100C20002D4B12689A424CD02C4B2D4C1A782D48E3
:100C3000D2B2FF21019219701B78DBB28DF803301C
:100C40009DF803309DF8031003F0BF030722090647
:100C5000237002600ED5062200E00A469DF803309C
:100C60005B00DBB28DF803309DF803301B0602F108
:100C7000FF31F2D40199194C1B4B1202C9B202F494
:100C8000E062026021701A6842F47F021A601A68FA
:100C900042F07F421A6003F025F9144B00221A60DB
:100CA000FFF7EEFE124A136843F040431360FFF76C
:100CB000D7FEFFF7EFFE0F4840F2411101F074FE3E
:100CC000ADE70C484FF4A17101F06EFEACE700BF38
:100CD00000ED00E071C20F4170C20F4100E400E07E
:100CE000D4230020D823002020ED00E008000020BD
:100CF00034EF00E0D04D000008B5EFF305830F2B73
:100D000005D90E490E4A5B5C12789A420FD80D4BFA
:100D10000D4A1B68126803F4E063934200D808BDD3
:100D20000A4840F2F621BDE8084001F03DBE074800
:100D300040F2E62101F038FEE9E700BFF0E300E011
:100D4000D42300200CED00E0D8230020D04D00007B
:100D500070B50E460546002834D05EB306FB05F09C
:100D60004830FFF7FBFD044600F1480300B3236061
:100D7000E5632664FFF7CEFE226CE36B2168A16079
:100D800003FB02F39A1A0A440B440020FF21A063DC
:100D9000E26084F84410636004F1100084F84510A8
:100DA000FFF710FE04F12400FFF70CFEFFF7D2FE60
:100DB000204670BD4820FFF7D1FD044603460028B9
:100DC000D5D1F5E702484FF4C47101F0EDFDC4E759
:100DD000584E00002DE9F04F85B0884601921D461F
:100DE0000446002800F0C881B8F1000F00F0CD8162
:100DF000022D00F0368101F021FB18B9019B002B78
:100E000040F0A581FFF786FEA26BE36BAD4F4FF07C
:100E100000099A424E46C0F08D80022D00F02B81D1
:100E20000198002800F03981B9F1000F00F0968098
:100E3000FFF790FE00F0FCFEFFF76CFE94F84430E4
:100E4000FF2B08BF84F8446094F84530FF2B08BF9F
:100E500084F84560FFF77EFE02A801A901F092FA2E
:100E6000002840F02181FFF755FEA26BE36B9A4208
:100E700078D0FFF76FFEFFF74DFE94F845305FFA2C
:100E800083FA4FFA8AF3002B1ADD636AC3B104F1C7
:100E9000240907E00AF1FF33DBB25FFA83FA7BB182
:100EA000636A6BB1484601F0FFF90028F2D001F007
:100EB000A5FA0AF1FF33DBB25FFA83FA002BEFD118
:100EC000FF2384F84530FFF745FEFFF723FE94F833
:100ED00044305FFA83FA4FFA8AF3002B1ADD236954
:100EE000C3B104F1100907E00AF1FF33DBB25FFA86
:100EF00083FA7BB123696BB1484601F0D5F900282C
:100F0000F2D001F07BFA0AF1FF33DBB25FFA83FA29
:100F1000002BEFD1FF2384F84430FFF71BFE00F0D5
:100F200061FFFFF7F7FDA26BE36B9A424FF00109F7
:100F3000BFF473AF226CA66B002A79D12568002D0F
:100F400000F03D810136636AA663002B40F02781E3
:100F5000FFF700FE012005B0BDE8F08F02A801F008
:100F6000FBF965E704F11009FFF7F4FD4846019924
:100F700001F0E6F8FFF7CEFD94F845A05FFA8AFA93
:100F80004FFA8AF3002B1CDD636AD3B104F1240B02
:100F900008E00AF1FF3A5FFA8AF35FFA83FA83B155
:100FA000636A73B1584601F07FF90028F1D00AF165
:100FB000FF3A01F023FA5FFA8AF35FFA83FA002B13
:100FC000EED1FF2384F84530FFF7C4FDFFF7A2FD03
:100FD00094F844305FFA83FA4FFA8AF3002B06DC68
:100FE00015E00AF1FF33DBB25FFA83FA7BB12369C4
:100FF0006BB1484601F058F90028F2D001F0FEF933
:101000000AF1FF33DBB25FFA83FA002BEFD1FF2343
:1010100084F84430FFF79EFD00F0E4FE002880D104
:101020004FF080533B60BFF34F8FBFF36F8F78E774
:101030004146002D00F09180E06803F0ABF8236C8E
:10104000E26821685B421A448A42E26002D2626826
:101050001344E360022D7FF475AF002E08BF012614
:1010600071E7E36B012B3FF4C6AE174840F2DB217A
:1010700001F09AFCBFE6226CA66B002A3FF45EAF3B
:101080004146E06803F086F8236CE26821685B4221
:101090001A448A42E260DAD3DFE70090FFF75AFD94
:1010A000009805B0BDE8F08FFFF734FD94F8455087
:1010B000EDB26BB2002B1BDD636ACBB104F12406E9
:1010C0000AE000BF04ED00E0584E0000013DEBB225
:1010D000DDB26BB1636A5BB1304601F0E5F8002820
:1010E000F4D0013D01F08AF9EBB2DDB2002BF1D171
:1010F000FF2384F84530FFF72DFDFFF70BFD94F833
:101100004450EDB26BB2002B16DD2369A3B104F19C
:10111000100605E0013DEBB2DDB26BB123695BB1B6
:10112000304601F0C1F80028F4D0013D01F066F925
:10113000EBB2DDB2002BF1D1FF2384F84430FFF78E
:1011400009FD00F04FFE002005B0BDE8F08F2248F9
:1011500040F2DE2101F028FC54E6A06803F01AF802
:10116000A168236C62680B449342A360FFF4EAAE6B
:101170002368A3600136E6E6174840F2D92101F062
:1011800013FCB8F1000F7FF433AE236C002B3FF457
:101190002FAE114840F2DA2101F006FC28E604F1F6
:1011A000240001F081F800283FF4D2AE0B4B4FF041
:1011B00080521A60BFF34F8FBFF36F8FC8E660682D
:1011C00001F09AF9636A65600136A663002BE6D1E7
:1011D0000028EBD1BCE600BF584E000004ED00E053
:1011E0002DE9F047884682B0174699460446002804
:1011F00072D0B8F1000F77D0B9F1020F55D0FFF7D8
:101200007BFDEFF311864FF0BF0383F31188BFF32B
:101210006F8FBFF34F8FA16BE26B914208D3B9F18F
:10122000020F39D0002086F3118802B0BDE8F087A4
:1012300094F84550226CD4F838A0EDB28AB92368EE
:10124000002B68D00AF10103FF2DA36355D00135AF
:10125000EDB284F84550012086F3118802B0BDE854
:10126000F087B9F1000F29D04146E06802F092FF03
:10127000236CE26821685B421A448A42E26002D22F
:1012800062681344E360B9F1020FDBD1BAF1000FD9
:1012900014BF53460123D7E794F84550226CD4F885
:1012A00038A0EDB2002ACAD0DEE7E36B012BA6D04E
:1012B0001C4840F2A13101F077FBA0E74146A0684D
:1012C00002F068FFA168236C62680B449342A3603C
:1012D00024BF2368A360B5E7124840F29F3101F0B4
:1012E00063FBB8F1000F87D1236C002B84D00D482D
:1012F0004FF4687101F058FB7EE7636A002BAAD0B7
:1013000004F1240000F0D0FF0028A4D0002FA2D0C8
:101310000120386087E76068019301F0EDF8019BD8
:1013200063608FE7584E00002DE9F04F85B08B4683
:10133000019298460446002800F0BB81BBF1000FE3
:1013400000F0C08101F07AF818B9019B002B40F041
:10135000A381FFF7DFFBA36BAD4E00273D46002BBB
:1013600040F0F480019B002B00F07281002F00F010
:101370000F81FFF7EFFB00F05BFCFFF7CBFB94F86E
:101380004430FF2B08BF84F8445094F84530FF2BBD
:1013900008BF84F84550FFF7DDFB02A801A900F063
:1013A000F1FF00286DD1FFF7B5FBA36B002B40F0D8
:1013B000F380FFF7CFFB2368002B00F04F8104F18F
:1013C00024094846019900F0BBFEFFF7A3FB94F8FF
:1013D00045305FFA83FA4FFA8AF3002B06DC15E0FA
:1013E0000AF1FF33DBB25FFA83FA7BB1636A6BB158
:1013F000484600F059FF0028F2D000F0FFFF0AF144
:10140000FF33DBB25FFA83FA002BEFD1FF2384F8BE
:101410004530FFF79FFBFFF77DFB94F844305FFA00
:1014200083FA4FFA8AF3002B1ADD2369C3B104F162
:10143000100907E00AF1FF33DBB25FFA83FA7BB1F0
:1014400023696BB1484600F02FFF0028F2D000F06E
:10145000D5FF0AF1FF33DBB25FFA83FA002BEFD13D
:10146000FF2384F84430FFF775FB00F0BBFC002835
:1014700065D14FF080533360BFF34F8FBFF36F8F51
:101480005DE0FFF747FB94F845305FFA83FA4FFAC7
:101490008AF3002B1ADD636AC3B104F1240907E063
:1014A0000AF1FF33DBB25FFA83FA7BB1636A6BB197
:1014B000484600F0F9FE0028F2D000F09FFF0AF144
:1014C000FF33DBB25FFA83FA002BEFD1FF2384F8FE
:1014D0004530FFF73FFBFFF71DFB94F844305FFA00
:1014E00083FA4FFA8AF3002B1ADD2369C3B104F1A2
:1014F000100907E00AF1FF33DBB25FFA83FA7BB130
:1015000023696BB1484600F0CFFE0028F2D000F00E
:1015100075FF0AF1FF33DBB25FFA83FA002BEFD1DC
:10152000FF2384F84430FFF715FB00F05BFCFFF766
:10153000F1FAA36B002B00F08B80FFF70BFBFFF79A
:10154000E9FAA36B0127002B3FF40CAF226CE5688E
:101550005AB160680093A9188142E16024BF2168F4
:10156000E160584602F016FE009BB8F1000F7DD1F5
:101570002268013BA363002A00F0AE802369002BA0
:1015800040F09080FFF7E6FA012005B0BDE8F08F4B
:1015900002A800F0E1FEECE6FFF7DCFAFFF7BAFA8A
:1015A00094F845305FFA83FA4FFA8AF3002B1ADD7C
:1015B000636AC3B104F1240907E00AF1FF33DBB227
:1015C0005FFA83FA7BB1636A6BB1484600F06CFE48
:1015D0000028F2D000F012FF0AF1FF33DBB25FFA0D
:1015E00083FA002BEFD1FF2384F84530FFF7B2FADE
:1015F000FFF790FA94F844305FFA83FA4FFA8AF3CF
:10160000002B1DDD2369DBB104F110090AE000BFE6
:1016100004ED00E00AF1FF33DBB25FFA83FA7BB13D
:1016200023696BB1484600F03FFE0028F2D000F07D
:10163000E5FE0AF1FF33DBB25FFA83FA002BEFD14C
:10164000FF2384F84430FFF785FA00F0CBFB76E700
:10165000FFF780FA002005B0BDE8F08FFFF75AFAD7
:10166000606800F0FBFEFFF775FAA8E6636AE560C4
:10167000002B87D004F1240000F016FE002881D052
:10168000174B4FF080521A60BFF34F8FBFF36F8F2D
:10169000FFF760FA012078E712484FF49C6101F0EF
:1016A00083F956E604F1100000F0FEFD0028E7D1B2
:1016B00068E70C4840F2DC4101F076F9BBF1000F1D
:1016C0007FF440AE236C002B3FF43CAE054840F263
:1016D000DD4101F069F935E600F064FF60604DE737
:1016E00004ED00E0584E0000184B1A6810B4AAB17F
:1016F0009A68DAB11A69DAB19A69DAB11A6ADAB1B2
:101700009A6ADAB11A6BDAB19A6BDAB11A6C22B151
:101710009A6CCAB15DF8044B7047082203EBC2040F
:1017200043F8321060605DF8044B70470122F5E722
:101730000222F3E70322F1E70422EFE70522EDE7B7
:101740000622EBE70722E9E70922E7E71025002058
:1017500070B505460E461446FFF7DCF995F844309F
:10176000FF2B04BF002385F8443095F84530FF2B4C
:1017700004BF002385F84530FFF7ECF9AB6B2BB9BC
:101780003146224605F1240000F02EFDFFF7C2F994
:1017900095F84540E4B263B2002B16DD6B6AA3B145
:1017A00005F1240605E0013CE3B2DCB26BB16B6AE3
:1017B0005BB1304600F078FD0028F4D0013C00F029
:1017C0001DFEE3B2DCB2002BF1D1FF2385F84530DA
:1017D000FFF7C0F9FFF79EF995F84440E4B263B211
:1017E000002B16DD2B69A3B105F1100605E0013CC5
:1017F000E3B2DCB26BB12B695BB1304600F054FD53
:101800000028F4D0013C00F0F9FDE3B2DCB2002B7B
:10181000F1D1FF2385F84430BDE87040FFF79AB955
:101820002DE9F84F9600814630460D4698460B9FAD
:10183000FFF794F88246002800F0AA805020FFF7B6
:101840008DF80446002800F0A080C0F830A02B7866
:1018500080F83430043E2B78564426F007062BB32C
:101860006B7880F835306B7803B3AB7880F836301E
:10187000AB78DBB1EB7880F83730EB78B3B12B790C
:1018800080F838302B798BB16B7980F839306B79EF
:1018900063B1AB7980F83A30AB793BB1EB7980F842
:1018A0003B30EB7913B12B7A80F83C300A9D022D46
:1018B00028BF02254FF0000B04F1040AE5622564FD
:1018C000504684F83DB0C4F844B0FFF787F8C5F13E
:1018D000030504F11800FFF781F8C4F848B0A561CA
:1018E000246184F84CB06462304649464246FFF7B2
:1018F000E9F8206007B13C60FFF70CF93B4A3C4F28
:101900001368013313603B68002B45D0DFF810816A
:10191000D8F800307BB3E36ADFF808C1DFF808E1EC
:10192000DCF80060DEF800203248012505FA03F9F2
:1019300003EB830349EA020200EB830051462E4485
:10194000CCF80060CEF80020FFF74CF8FFF702F962
:10195000D8F80030B3B13A68E36AD26A9A4211D239
:10196000254B4FF080521A60BFF34F8FBFF36F8F3C
:101970002846BDE8F88F3A68E36AD26A9A4298BF6F
:101980003C60C9E72846BDE8F88F5046FFF712F8DB
:101990004FF0FF30BDE8F88F3C601368012B03D097
:1019A000E36ADFF87C80B7E71248144E144DDFF885
:1019B0007080FFF707F81348FFF704F81248FFF7A5
:1019C00001F83046FEF7FEFF2846FEF7FBFF0F4802
:1019D000FEF7F8FF0E48FEF7F5FF0E48FEF7F2FFA0
:1019E0000D4B0E4A1E60E36A156095E7AC2400209B
:1019F0005C2400201824002004ED00E08424002052
:101A0000982400202C240020402400206024002062
:101A1000EC23002000240020E42300207C2400206C
:101A2000E823002080240020B02400202DE9F84382
:101A30004FF40C70FEF792FF0546002800F09B80E3
:101A40005020FEF78BFF0446002800F0918000260E
:101A500044214C2245234920271D84F8351084F861
:101A6000362084F83730256384F8340084F83860F1
:101A7000384684F83D60E66226646664FEF7AEFF91
:101A800005F50B7504F11800FEF7A8FF25F0070512
:101A900003233246A664A361504984F84C6028466B
:101AA00024616462FFF70EF84D4B20601C60FFF765
:101AB00031F84C4ADFF86881136801331360D8F8B5
:101AC0000030002B5ED0484E3368002B43D0E36AD1
:101AD000DFF850C1DFF850E1DCF80050DEF800001C
:101AE000DFF8189101229A4003EB83030243394641
:101AF00009EB83000135CCF80050CEF80020FEF74A
:101B000071FFFFF727F833686BB1D8F80020E36A5C
:101B1000D26A9A4207D2354B4FF080521A60BFF317
:101B20004F8FBFF36F8F00F099FD01281CD14FF04C
:101B3000BF0383F31188BFF36F8FBFF34F8F2C4B1D
:101B40002C494FF0FF3400220C6030601A60BDE871
:101B5000F843FFF75DB8D8F80020E36AD26A9A42EA
:101B600098BFC8F80040B3E7013004D0BDE8F8835F
:101B70002846FEF71FFF204840F28471BDE8F84375
:101B800000F012BFC8F800401368012B02D0E36ACE
:101B9000154E9DE71948DFF89490194D124EFEF747
:101BA00011FF1848FEF70EFF1748FEF70BFF4846D7
:101BB000FEF708FF2846FEF705FF1448FEF702FF70
:101BC0001348FEF7FFFE1348FEF7FCFE124B134AC4
:101BD000C3F80090E36A15607AE700BFC91F0000F0
:101BE00074240020AC240020E823002004ED00E051
:101BF00078240020DC230020C84E00001824002098
:101C0000982400202C240020402400206024002060
:101C1000EC23002000240020E42300207C2400206A
:101C20005C24002080240020B02400208424002094
:101C3000024A136801331360704700BF5424002028
:101C4000014B1868704700BF7824002038B5084C55
:101C5000084A2368126803449342054604D906489B
:101C600040F6711100F0A0FE20682844206038BDC5
:101C700078240020DC230020C84E00002DE9F04F1E
:101C80004C4B1B6883B0CBB94B4B1D6801351D60B5
:101C900015B34A4B01931B689D423AD2DFF83C9141
:101CA000DFF83C810024D8F80030DB6A03EB8303C3
:101CB00059F82330022B28BF012404E0404A13685E
:101CC0000133136000243F4B1B68002B18BF012415
:101CD000204603B0BDE8F08F3B4F3B681B68002BEC
:101CE0005ED13A4B39683A4A18683860196013680F
:101CF0003549013313603B681B68002B47D12F4BDC
:101D000001931A464FF0FF33136013461B689D4240
:101D1000C4D32D4FDFF8C490DFF8C4802D4E0024CB
:101D20002CE0294B1B68DB68D3F80CA0DAF8042000
:101D30000AF1040B9542584638D3FEF77DFEDAF8D7
:101D400028200AF118000AB1FEF776FEDAF82C0016
:101D50003268012303FA00FE00EB80004EEA020223
:101D6000594609EB80003260FEF73CFED8F80010BF
:101D7000DAF82C20CB6A9A4228BF01243B681B6802
:101D8000002BCED1019A4FF0FF3313608BE70B6825
:101D90000A4ADB680192DB685B68136013467AE7E6
:101DA0000D4840F6D91100F0FFFD9AE7019B1A603B
:101DB00079E700BF5424002078240020DC23002091
:101DC00014240020B4240020E42300207C240020DC
:101DD000E0230020B0240020C84E0000182400207A
:101DE0005C2400202DE9F84F3E4C2368002B68D07E
:101DF000FEF790FE2368013B23602468002C5AD133
:101E0000394B1B68002B56D0DFF800A1DFF80081AA
:101E1000364E374FD346DAF8003001252BB3DBF8C6
:101E20000C30DC6804F1040904F11800FEF704FE2C
:101E30004846FEF701FEE06A336805FA00F200EB5F
:101E400080001343494607EB80003360FEF7CAFD6C
:101E5000284BE26A1B68DB6A9A42DCD3DAF800306E
:101E6000C8F800500125002BD9D13CB1224B1A688B
:101E7000126862BB214B4FF0FF321A60204E34686B
:101E800044B10125FFF7FAFE08B1C8F80050013C43
:101E9000F8D13460D8F800306BB11A4B4FF0805253
:101EA0001A60BFF34F8FBFF36F8F0124FEF752FE0E
:101EB0002046BDE8F88F0024FEF74CFE2046BDE822
:101EC000F88F11484FF4FD6100F06EFD90E71A683D
:101ED0000A4BD2680A4ED26852681A603468002CE5
:101EE000D8D0CEE754240020AC240020B024002019
:101EF000182400205C240020E4230020DC230020A0
:101F00001424002004ED00E0C84E000060240020EE
:101F1000B424002070B500282DD0224D2B68044633
:101F2000002B38D12B68204A204E01332B601568D6
:101F300030680430FEF780FD40B933681C49D86A28
:101F40000A680123834022EA03030B602C443268B1
:101F5000164B5460A54217D8164A10681968043108
:101F6000FEF750FD144B1A68944238BF1C60FFF70F
:101F700039FF00B170BD114B4FF080521A60BFF3B2
:101F80004F8FBFF36F8F70BD0D4A10681968043111
:101F9000FEF738FDEBE70B4840F2CF4100F004FDBF
:101FA000C0E700BF54240020782400205C240020D7
:101FB000B0240020E4230020DC23002004ED00E016
:101FC0007C240020C84E00002DE9F04D354E364DE2
:101FD000364CDFF8F080DFF8F0B0B24607E0236857
:101FE000376801332360FFF7FDFE002F2CD12B68EB
:101FF000002BF4D12E4B1A682E4B1B68DB6A002B8A
:10200000F5D1DBF80030012BF1D8012AEFD82A4BAB
:102010002A4A1B681268284828499B1A012BE6D9CE
:1020200023680133236002680B689A4227D3204B50
:102030001A68204B1B68DB6A1BB9DBF80030012BE8
:1020400023D9FFF7CFFED2E7FEF764FDDAF80C30B4
:10205000DF68381DFEF7F0FCD8F80030124A013B6B
:10206000C8F80030104B1B68013B1360FEF772FD8F
:10207000386BFEF79FFC3846FEF79CFCB7E710482C
:1020800040F68C4100F090FCD1E7012AD9D80A4BE8
:102090000A4A1B681068181A0128D2D901F070FF8B
:1020A000CFE700BFEC230020582400205424002058
:1020B000B02400205C240020DC23002078240020B1
:1020C000C84E0000AC24002018240020164B1B68CA
:1020D000FBB91649164A70B50B601468B4FA84F45B
:1020E000E4B2C4F11F04A6003319124D55F8233091
:1020F0009BB13444A4002A19083453685B685360C8
:102100002C44A34204BF5B6853600B4ADB68136036
:1021100070BD064B01221A607047084840F6F62150
:1021200000F042FCE5E700BF54240020B424002066
:10213000B0240020182400205C240020C84E000099
:1021400070B50C460646002838D01F4D2968304629
:102150001831FEF757FC1D4B1E6828680430FEF747
:102160006BFC40B92B681A49D86A0A68012383407E
:1021700022EA03030B60631C19D034442B68124A13
:102180005C60A6420BD8134B186811680431FEF747
:1021900039FC114B1A68944238BF1C6070BD0F4B5C
:1021A00018681168BDE870400431FEF72BBC29683F
:1021B0000B480431BDE87040FEF714BC094840F6F6
:1021C000063100F0F1FBC0E75C24002078240020F9
:1021D000B0240020E4230020DC2300207C24002005
:1021E00000240020C84E0000F8B50C4617460646ED
:1021F000002842D0244D296830461831FEF7F2FB02
:10220000224B1E68286804302FB1FEF715FC20BB56
:102210004FF0FF3402E0FEF70FFC40B92B681C4979
:10222000D86A0A680123834022EA03030B60631C17
:1022300011D034442B68144A5C60B44215D3154B5A
:10224000186811680431FEF7DDFB134B1A689442DD
:102250000AD21C60F8BD002FEBD029680F4804316A
:10226000BDE8F840FEF7BEBBF8BD0D4B186811681D
:10227000BDE8F8400431FEF7C5BB0A4840F63131ED
:1022800000F092FBB6E700BF5C2400207824002019
:10229000B0240020E4230020DC23002000240020C0
:1022A0007C240020C84E0000F8B5C368DC68002C10
:1022B0003AD004F118052846FEF7BEFB1D4B1B68FB
:1022C00033BB271D1C4E3846FEF7B6FBE36A356864
:1022D0001A4801229A4003EB83032A43394600EB54
:1022E00083003260FEF77EFB154BE26A1B68DB6AF7
:1022F0009A4282BF134B01201860134B1A68126870
:1023000098BF00204AB9114B4FF0FF321A60F8BD58
:1023100029460F48FEF766FBE6E71A680B4BD268C2
:10232000D26852681A60F8BD0A4840F6613100F080
:102330003BFBBEE754240020B024002018240020DA
:102340005C240020B4240020E4230020DC230020AF
:1023500060240020C84E000010B5044630B1064A83
:10236000064B12681B6884E80C0010BD044840F658
:10237000C13100F019FBF2E7E023002078240020AF
:10238000C84E0000F8B50D460446B8B10DB3FEF7CF
:10239000C1FB2B681649581C0A6815D0154E2768D2
:1023A00030688742606801D0824202D2171ABB426D
:1023B00015D80125FEF7CEFB2846F8BD0E4840F69D
:1023C000CB3100F0F1FAE1E70025FEF7C3FB284628
:1023D000F8BD094840F6CC3100F0E6FAD7E79B1A81
:1023E000034430680A682B60002584E80500E1E7B3
:1023F00078240020E0230020C84E0000014B012279
:102400001A607047B4240020084B186860B9084B64
:102410001B6853B9074A084B10681B680138834290
:1024200014BF012002207047002070476024002064
:10243000B4240020AC24002000240020054B1B689D
:1024400033B1054B1B68002B0CBF022000207047E6
:1024500001207047E823002054240020002842D0A7
:102460002DE9F041214CC36A2268D26A934212D20C
:102470008269002A04DB2268D26AC2F10302826107
:102480001B4D426903EB830305EB83039A4204D09F
:102490002368DB6AC362BDE8F08100F104080746E7
:1024A0004046FEF7C9FAF8B9FB6A124E03EB830205
:1024B00055F8222032B93268012101FA03F322EAE9
:1024C0000303336023683268D86AF86201238340CB
:1024D000134300EB8000414605EB80003360BDE80C
:1024E000F041FEF77FBA7047024EEBE75C24002014
:1024F00018240020B0240020002849D0F8B5254B2E
:102500001B689842044604D0234840F6C76100F097
:102510004BFA636CEBB1E16A226C013B914263645C
:1025200000D00BB10020F8BD271D3846FEF784FA15
:10253000B0B9E36A19481A4E03EB830250F822201F
:1025400082B93268012101FA03F322EA03033360FE
:1025500008E0114840F6C96100F026FA636CDAE73A
:102560000E480F4E236C3268E362012505FA03FC26
:10257000C3F1030E03EB83034CEA020200EB83007A
:102580003946C4F818E03260FEF72CFA2846F8BD48
:10259000002070475C240020C84E00001824002052
:1025A000B0240020044B1A681AB119684A6C013231
:1025B0004A641868704700BF5C2400202DE9F0478A
:1025C000224EDFF8949084B0B0460CE0DB68DC6803
:1025D0001F68251D2846FEF72FFA636A2046984794
:1025E000E369012B0BD0336818491A68002AEDD132
:1025F000174A10680860136004B0BDE8F087A3694B
:102600003B44BB424FF0000A294617D8D9F80030A6
:1026100073B1CDF804A002970394FFF70FFFD9F828
:10262000000001A952465346FEF7D4FB0028DAD138
:10263000084840F2923100F0B7F9D4E763602461B2
:10264000D8F80000FEF7DEF9CDE700BFB82400207F
:10265000EC240020384F0000E4240020F0B51B4C8F
:1026600083B0FEF757FA2568C5B1FEF773FA236801
:1026700063B1174B1748184902228DE80C008C22D1
:102680000023FFF7CDF808B103B0F0BD134840F2C6
:10269000331100F089F9002003B0F0BD104F114E46
:1026A0003846FEF78FF93046FEF78CF90E4A0F4B8D
:1026B00017600A202A460C211E60FEF749FB2060A5
:1026C0000028D2D00A49FFF70FF8CEE7E424002013
:1026D000F024002061270000B44F0000384F0000B4
:1026E000BC240020D0240020B8240020EC240020AA
:1026F000AC4F000070B50D4686B0044610B3164EC0
:10270000306870B1052D0395049205940BDCFFF73A
:1027100095FE02280ED000223068134603A9FEF76A
:1027200059FB06B070BD1A4603A90023FEF758FDF9
:1027300006B070BD30680A9A03A90023FEF74AFB71
:1027400006B070BD05484FF4D3718DE80C0000F061
:102750002BF99DE80C00D2E7E4240020384F00005C
:102760002DE9F04F8A4D8B4FDFF838928A4C89B0B3
:10277000AA463B681E68002E4ED0DB68D3F800B036
:10278000FFF756FAFFF75CFA2B689842804655D35C
:102790008345CAF800005DD90022C8EB0B01206810
:1027A000FEF7D6FFFFF71EFB38B97C4A4FF0805387
:1027B0001360BFF34F8FBFF36F8F4FF000080126F8
:1027C00000221346206805A9FEF7AEFD0028D0D0F0
:1027D000059B002BF4DBDDF81CB0DBF814300BF1AB
:1027E00004000BB1FEF728F9FFF72AFA2B6898428C
:1027F00002462AD3059B2A60092B06FA03F1DFD88B
:1028000011F4047F6ED111F0C70F42D18B06D7D5DA
:102810005846FEF7CFF8D2E7FFF70AFAFFF710FAAB
:102820002B689842804609D3D9F80030CAF80000D6
:102830001A68B2FA82F2B3465209AEE7FFF7BEFE5B
:10284000C5F80080FFF7CEFAB7E70390FFF7B6FEB2
:10285000039ACFE7FFF7C6FA4E4B1B68DB68DE68CA
:10286000311D08460391FEF7E7F8F2690399012A42
:1028700003D0736A304698479FE7B26936610BEB25
:102880000200404570604AD9424B1868FEF7BAF81A
:10289000EFE7069BDBF81800CBF810B0C1189142A7
:1028A000CBF8041031D8D31A984227D8DBF824305B
:1028B00058469847DBF81C30012B80D1DBF81860B4
:1028C000069ACDF800800021584632440B46FFF7A7
:1028D00011FF00287FF473AF314840F2213100F03E
:1028E00063F86CE7069BCBF81830002B37D0134405
:1028F0009342CBF80430CBF810B00AD80BF10401A6
:10290000D9F80000FEF77EF859E7934201D98B42CF
:10291000CCD90BF104013868FEF774F84FE7CBEB24
:10292000080842452FD822681B4B92B14FF000088F
:102930000393CDF818B00796CDF81480FFF77EFD0D
:10294000039B4246186805A94346FEF743FA002850
:102950008FD113484FF4027100F026F889E74FF445
:102960004E710F48039200F01FF8039ADBF81830FD
:10297000CBF810B0D1189142CBF80410C9D8002B75
:102980003FF41DAFBAE7D9F80000FEF73BF870E757
:10299000E8240020B8240020E424002004ED00E016
:1029A000384F0000EC240020FEE700BF6C4B98423B
:1029B00070B5044602D06B4B98420BD104F00F0364
:1029C000013B062B00F28380DFE803F033734C8178
:1029D000815A0A0064484FF4F371FFF7E5FFEDE711
:1029E000624BDB6A03F46033B3F5803F2BD0B3F561
:1029F000003F00F09880B3F5004F48D0584B9C4200
:102A00007AD0584B9C4240F08580584B9B6AC3F368
:102A10008103022B22D0032B00F09180012B7ED06A
:102A2000524B9B6A1422D34041D0BDE87040FDF761
:102A300039BD4E4BDB6A03F47053B3F5805F72D03F
:102A4000B3F5005F23D1464B9C4255D0454B9C4289
:102A5000DBD045484FF40471FFF7A6FFBDE8704096
:102A6000FDF724BD414A936A03F00C03082BEAD01A
:102A70000C2B0CD0042B56D0936ADB0207D4BDE795
:102A80003A4B1B6813F0805301D0002BB6D0344B67
:102A90009C4231D0334B9C42B7D033484FF4047141
:102AA000FFF782FF304840F23B21FFF77DFF002017
:102AB00070BD2E4A936A03F00303022BC3D0032B8D
:102AC000E5D0012B2FD0936ADA03E0D496E7244EA9
:102AD000254840F6A711FFF767FFB4420CD0214DFF
:102AE000AC4292D020484FF40471FFF75DFFB4422E
:102AF0000CD0AC42DBD193E71C4B9B6A03F0030381
:102B0000022BABD0032B1AD0012B08D0174B10226D
:102B10009B6A88E714484FF40471FFF745FFBDE84E
:102B20007040FDF7BBBC0E4B9C42E5D00D4B9C4268
:102B30003FF46BAF0C484FF40471FFF735FFFDF71E
:102B4000C3FB0B4A0B4B15681B689D42044603D020
:102B50000548DC21FFF728FF013524FA05F070BD98
:102B600002001A0003001C00BC4F000000800C4053
:102B700078009043A0009043C0F30313013B70B56D
:102B80000C46062B00F2F580DFE813F02900F30075
:102B9000F300E3007300B9000700B34B984200F064
:102BA000258103F50433984240F01981082900F289
:102BB000AB81AE4A536DD90740F1E280631EB3F595
:102BC000004F80F08E81B4FA84F4A84A136FC4F1E8
:102BD0001F0423F0300343EA0413136770BD4C1E37
:102BE000072C04D9A24840F2EC41FFF7DDFEFDF7C7
:102BF000D9FBA04B41F67132DD6BDA635B6803F001
:102C00000703042B06D8012202FA03F313F0130F73
:102C100040F05481984B984240F2D180052295496A
:102C20004B6823F0070313434B600DB10023CB63C4
:102C30008E4A136823F4E03343EA84341460FDF7CA
:102C400043FB8C4B41F67132DC6BDA635B6803F05B
:102C50000703042B00F29C80012202FA03F313F015
:102C6000130F00F09580844B984240F219810422A2
:102C700092E04D1EB5F5007F80F05B81FDF792FB81
:102C80007C4B41F67132DE6BDA635B6803F007035D
:102C9000042B06D8012202FA03F313F0130F40F0BD
:102CA0000781754B984240F29280052271494B682A
:102CB00023F0070313434B600EB10023CB63FDF7F2
:102CC00075FB6E49B0FBF4F06D4A6E4B884294BFC1
:102CD00000200120B5F5004F1060186004D36A4849
:102CE00040F22451FFF760FEB4FA84F45F4A53685F
:102CF000C4F11F0423F00F031C4354609FE7634B90
:102D0000984200F03D8140F28E80614B984200F085
:102D10001681604B984240F0EA80082900F27281E7
:102D2000524A536DDB0740F1CE80631EB3F5004F6E
:102D300004D3554840F22451FFF736FEB4FA84F428
:102D40004A4A936EC4F11F0423F00303234393669E
:102D500070BD4D1EB5F5007F80F0DC80B4FA84F4C0
:102D6000424A9368C4F11F0423F00F031C4394608C
:102D700070BD3F4840F28B51BDE87040FFF714BE74
:102D8000136D5B067FF51AAF136D5B06F8D415E77C
:102D9000394B98420BD9052236494B6823F007037B
:102DA00013434B6014B10023CB6370BD70BD3A4B2D
:102DB0003A4A034493428CBF02220322ECE7364B8B
:102DC000364A034493428CBF0222032227E7324B48
:102DD000324A034493428CBF0222032266E724480E
:102DE00040F28551BDE87040FFF7DEBD082900F2D2
:102DF00085801E4A536DDD070ED5631EB3F5004F67
:102E000069D2B4FA84F4194A136FC4F11F0423F091
:102E100003032343136770BD136D5806EDD5136D7F
:102E20005806F9D4E9E7A3F5822398425FD1B1F5BA
:102E3000004F00F2E1800D4A536DD90747D5631E5C
:102E4000B3F5004F04D3104840F22451FFF7ACFD16
:102E5000B4FA84F4054A936EC4F11F0423F0F0031E
:102E600043EA0413936670BD7007160000800C409F
:102E7000BC4F000000000C400048E80100366E0125
:102E800078009043A000904320500000602614007A
:102E90006000260060062A00FFDB0BFFFF23F40022
:102EA0005B4B5C4A034493428CBF0022012273E7D0
:102EB000594B984240F28C800422F7E6564B9842D8
:102EC0007ED90422ABE6136D5E07FCD42DE7136DAB
:102ED0005B07FCD4B3E7514840F22451FFF764FD8F
:102EE0008FE74E4840F22451FFF75EFD6BE64C48F9
:102EF00040F25E51BDE87040FFF756BD48484FF4C0
:102F0000AD61FFF751FD74E7454840F27751FFF797
:102F10004BFD4EE6424840F2FF41FFF745FDB5F557
:102F2000004FFFF41BAF3D4840F22451FFF73CFD3A
:102F300014E73B4840F20751FFF736FD9EE6A1F14A
:102F40001003702B52D8374A536DD80714D5631E1F
:102F5000B3F5004F04D3314840F22451FFF724FD6C
:102F6000B4FA84F42F4A936EC4F11B0423F4405343
:102F700043EA0433936670BD136D5907FCD4E6E74A
:102F8000B1F5004F2CD8274A536DDE0714D5631EC8
:102F9000B3F5004F04D3214840F22451FFF704FD5C
:102FA000B4FA84F41F4A936EC4F11F0423F47063CF
:102FB00043EA0423936670BD136D5D07FCD4E6E716
:102FC000134B144A034493428CBF0022012226E68D
:102FD0000F4B104A034493428CBF0022012265E646
:102FE0000F4840F23151FFF7DFFCCCE70C484FF4BB
:102FF000A861FFF7D9FCA6E7094840F22351FFF783
:10300000D3FC18E706484FF4AA61FFF7CDFC87E62A
:10301000FFDB0BFFFF23F4000048E8012050000015
:10302000BC4F000000800C4000F00F00013808B5D4
:10303000062852D8DFE800F0142435515146040028
:103040002D4BDB6A03F46033B3F5803F4ED0B3F50C
:10305000003F49D0B3F5004F0CBF0820012008BD48
:10306000254BDB6A03F47053B3F5805F3CD0B3F5B6
:10307000005F3BD0B3F5006F0CBF0420052008BDF6
:103080001D4B986A00F0030002282ED003282FD091
:10309000012829D09B6A13F4803F0CBF012009202E
:1030A00008BD154A936A03F00C03082B1ED00C2BA5
:1030B0001ED0042B18D0936A13F4801F0CBF01207C
:1030C000092008BD0C4B1B6813F0805312D0B3F1DC
:1030D000805F0CBF0820012008BD084840F6A711FA
:1030E000FFF762FC002008BD032008BD022008BDD8
:1030F000062008BD072008BD00800C40BC4F000022
:1031000000F47810B0F5B01F08B500F09E8014D818
:10311000B0F5402F00F08B8026D8B0F5003F79D075
:10312000B0F5802F00F0B780002877D0704840F2CB
:10313000BC61FFF739FC002008BDB0F5081F00F0A6
:103140009F8037D8B0F5D01F5FD0B0F5E01F69D0B1
:10315000B0F5C01FEAD16748FFF728FC664B1B6F2C
:10316000C3F30113D84008BDB0F5801F35D0B0F5CA
:10317000A01F73D0B0F5602FD8D15F4B5B6903F40B
:10318000E063B3F5007F00F0A58040F28C80B3F5DA
:10319000C06F00F0AB80B3F5E06F00F0A580B3F531
:1031A000407F00F08F8052484FF48F71FFF7FCFB97
:1031B000002008BDB0F5201F18D0B0F5281F56D04C
:1031C000B0F5181FB2D14D48FFF7F0FB4A4B9B6E8C
:1031D000C3F301330433D84008BD4848FFF7E6FB8A
:1031E000454B9B6EC3F30313D84008BD4348FFF71C
:1031F000DDFB414B9A6EDB6FC2F3013203F0070334
:10320000D0400133B0FBF3F008BD3C48BDE80840B6
:10321000FFF7CCBBBDE80840FDF756B8BDE8084055
:10322000FDF7C4B83348BDE80840FFF7BFBB3448DA
:10323000FFF7FAFE0728A0D00828EFD02C4840F26C
:103240004711FFF7B1FB002008BD2A48FFF7AEFB8E
:10325000294B1B6F03F00303D84008BD2748FFF735
:10326000A5FB254B9B6EC3F30323D84008BD234821
:10327000FFF79CFB204B9B6E03F00303D84008BD77
:103280002048FFF7D1FE032814D00828C6D0022812
:1032900014D0002008BDFDF789F8174B9B6803F098
:1032A0000F03D84008BDEBB1B3F5807F7FF47BAF4F
:1032B000154808BDBDE80840FDF7F0B8BDE8084076
:1032C000FDF7F4B8114BDB6CB3F1985F2CBF1048DD
:1032D000104808BD0D4BDB6CB3F1985F2CBF0E4856
:1032E0000E4808BD0E4808BD0E4808BD0E4808BD72
:1032F000BC4F000003001C0000800C4002001A00BC
:1033000006000C0007232200C0D8A700B081E00F00
:10331000804F120040420F0040B56400C0CF6A00E9
:10332000809FD500406F4001003FAB0170B5C0F3F6
:103330000323013B82B00446092B31D8DFE803F0B8
:103340001C1E2030300D19303005194DC4F30434E3
:103350002C44A400216002B070BD164D0120164A15
:10336000536DDB07C4F30434F2D4136D1842FCD15F
:10337000EEE7124D1020F2E7114DE7E7114DE5E7BA
:1033800011480191FFF7BCFE104B114E114A124D2E
:103390000199984294BF0020012030601060D5E769
:1033A0000E4840F2F25102B0BDE87040FFF7FCBA9F
:1033B000C003E410C002E41000800C400003E410DD
:1033C0004000E4102002E4100043020000366E01C9
:1033D00078009043A00090430002E410BC4F00002E
:1033E00038B500F00F04631E062B39D8DFE803F070
:1033F0002A1B1B3838110400032949D008296BD037
:1034000002295AD0A54840F68B31BDE83840FFF775
:10341000CBBA072936D0082948D1A14A136843F00E
:103420008053136021E00139082900F22A81DFE886
:1034300011F0B700DD00E900280128010A01280188
:103440002801FB000239072900F21481DFE811F09E
:103450000D014B00B700F200120112011201E5004C
:103460008E4840F69231FFF79FFA8E4A8E4B1268D3
:103470001B689A4205D08948DC21BDE83840FFF737
:1034800093BA38BD864A136823F080531360ECE783
:10349000834B864A402119621368002BFCD0804A76
:1034A00060235362D36A9903FCD5DEE77B4840F67C
:1034B0004731BDE83840FFF777BA794B7C4A4FF483
:1034C000807119621368002BFCD0754A4023536247
:1034D000D36AD803FCD5C8E7714A20235362D36A64
:1034E0001B04FCD5C1E7714A032440236C490B62DD
:1034F0001368002BFCD0FCF755FF6E4B41F6713280
:10350000DD6BDA635B6803F00703042B00F2C08015
:10351000012202FA03F313F0130F00F0B980664B97
:10352000984240F2FC80042262494B6823F0070372
:1035300013434B600DB10023CB63594B5F485C6272
:10354000FFF7DEFD5E4B584A5649984294BF002073
:10355000012008601060FCF7B7FE564B41F671324F
:10356000DC6BDA635B6803F00703042B00F2B080C6
:10357000012202FA03F313F0130F00F0A9804E4B5F
:10358000984240F2C48004224A494B6823F0070362
:1035900013434B60002C3FF468AF0023CB6364E718
:1035A00000210A460846022C00F0A7803C48826AA7
:1035B00022F4801323F00C030B43836255E73A4A4D
:1035C000384901230B601360FCF758FF344A3A4B2B
:1035D0009842136896BF23F0600343F0600343F002
:1035E000200313600224374A04237FE72C4B304A20
:1035F0004FF4807119621368002BFCD0082100225F
:103600000220D0E7264B294A402119621368002B7B
:10361000FCD0042100220120C5E7204840F64921C2
:10362000BDE83840FFF7C0B94FF480114FF4803245
:103630000020B8E71B4B1C48234A012119600C46A7
:103640000B46016052E7FCF73FFE1D4B1549164A39
:103650001E4D984294BF0020012001230860106095
:103660000C2100222B6003209DE7114A04244FF413
:1036700080733BE7094840F64E21BDE83840FFF72C
:1036800093B9064840F6E721BDE83840FFF78CB90A
:10369000094B984221D9052246E700BFBC4F0000E4
:1036A00000800C4078009043A00090439C0590431C
:1036B000A405904300000C400048E80100430200CC
:1036C00000366E018C0590438405904310089043AA
:1036D000174B984209D9052256E7164B164A034460
:1036E00093428CBF022203221EE7124B124A03446C
:1036F00093428CBF0222032246E710498B6A23F4CF
:103700008033024323F0030313438B62ADE6094B7E
:10371000094A034493428CBF0022012234E7054B3F
:10372000054A034493428CBF00220122FCE600BFFD
:103730000048E801FFDB0BFFFF23F40000800C4092
:10374000802810B504460BD8084A936D1B0706D491
:10375000D36F04F0070423F007031C43D46710BDA4
:10376000034840F6B151FFF71FF9EDE700800C4028
:10377000BC4F0000EFF3108072B6704700B962B61C
:10378000704700BF2DE9F843314BDFF8DC90DB6A6E
:10379000C9F8003080461120FFF746FC2D4A2E4B19
:1037A0002E491870136943F0040313610B698A6989
:1037B000CC6903F03F06C4F3031343EA062302F087
:1037C000F0021343A3F58073B3FA83F35B0953B19B
:1037D000234A244F11680F40C2F88070556825F0C5
:1037E0004605C2F8845030BF13B11D4B1F605D60A9
:1037F000B8F1000F03D1BDE8F843FCF765BD144AEA
:10380000194DD2F8844045F60E03C2F88430D9F839
:10381000003040F255111940052804F001041162EE
:1038200003F0010306D001461120FFF7D9FD2B68F4
:1038300003F0010343B12CB1054B0022C3F88420EF
:10384000BDE8F883BDE8F883014B02221A62F2E773
:1038500000800C4000ED00E0F8240020D0FF0FE0D5
:1038600000E100E09CF1FD00F42400202DE9F0418E
:10387000384CDFF8F880E36AC8F8003007461120BA
:10388000FFF7D2FB344B1870D4F8843045F60E01A4
:10389000DB074FF42072C4F8841048BF0023226273
:1038A0002E4A48BFC4F8843013692D4943F00403FD
:1038B00013610B698A69CC6903F03F0EC4F30313EB
:1038C00043EA0E2302F0F0021343A3F58073B3FA28
:1038D00083F35B0953B1234A234E11680E40C2F8AB
:1038E0008060556825F04605C2F8845030BF13B19A
:1038F0001C4B1E605D601FB9BDE8F041FCF7E4BCE5
:10390000144A1A4DD2F8844045F60E03C2F88430AA
:10391000D8F8003040F255111940052804F0010490
:10392000116203F0010306D001461120FFF758FD94
:103930002B6803F0010343B12CB1064B0022C3F8FE
:103940008420BDE8F081BDE8F081024B02221A62BA
:10395000F2E700BF00800C40F824002000ED00E0FA
:10396000D0FF0FE000E100E09CF1FD00F424002016
:10397000F8B5134B05465C68E8B1D5F80CC0D5F82E
:1039800004E02F7A0E4A6E7A298A10682D7824F482
:10399000830323F01F034CEA0E0423433B433343CA
:1039A0000B4320F00101116053601DB1136843F017
:1039B00001031360F8BD03484721FEF7F5FFDCE77C
:1039C00000A0084084500000054B054A5B68B0F534
:1039D000803F23F4803308BF43F480335360704743
:1039E00000A00840044A936819B923EA00009060D7
:1039F000704718439060704700A00840072870B5D2
:103A000004460D4616460FDC272D07DC072C4FD841
:103A1000DFE804F0181F272F363E46102A484FF4DF
:103A20008A71FEF7C1FFF1E7274840F20D11FEF75A
:103A3000BBFFE9E71F2DD4BF244B254B2B449B0034
:103A40001E6070BD1F2D3ADC224B2B449B001E6074
:103A500070BD1F2DD4BF204B204B2B449B001E60FC
:103A600070BD1F2DD4BF1E4B1E4B2B449B001E60F0
:103A700070BD1F2D23DD1C4B2B449B001E6070BDB1
:103A80001F2DD4BF194B1A4B2B449B001E6070BDD9
:103A90001F2DD4BF174B184B2B449B001E6070BDCD
:103AA0001F2DD4BF154B164B2B449B001E6070BDC1
:103AB000054840F28F11BDE87040FEF775BF114B0D
:103AC0002B449B001E6070BD84500000C006C510D2
:103AD000E005C5100002C5102002C5108002C51007
:103AE0004002C510A002C510C002C5106006C51076
:103AF0008005C5108006C510A005C510A006C5101C
:103B0000C005C5106002C510072870B505460E46F1
:103B1000144607DC072D5AD8DFE805F0141D262FC0
:103B200038434E0A2D4840F2A911FEF73DFFF1E758
:103B30002B4BD3F8D810344021EA06010C43C3F8CC
:103B4000D84070BD264B196C06EA040221EA06042F
:103B500014431C6470BD224B596C06EA040221EA2E
:103B6000060414435C6470BD1D4B996C06EA0402A4
:103B700021EA060414439C6470BD194BD96C06EA13
:103B8000040221EA06041443DC6470BD144BD3F82C
:103B9000CC1006EA040221EA06041443C3F8CC4020
:103BA00070BD0F4BD3F8D01006EA040221EA0604D8
:103BB0001443C3F8D04070BD094BD3F8D41006EAC3
:103BC000040221EA06041443C3F8D44070BD03483C
:103BD0004FF4F571BDE87040FEF7E6BE845000007A
:103BE00000A00840072870B505460E46144611DCB3
:103BF000072D0ED8DFE805F0141D262F38434E049C
:103C00002A4BD3F8C010344021EA06010C43C3F814
:103C1000C04070BD264840F20321FEF7C5FEE7E72D
:103C2000224B196D06EA040221EA060414431C65BE
:103C300070BD1E4B596D06EA040221EA06041443C6
:103C40005C6570BD194B996D06EA040221EA060411
:103C500014439C6570BD154BD96D06EA040221EA38
:103C600006041443DC6570BD104BD3F8B41006EAAB
:103C7000040221EA06041443C3F8B44070BD0B4BA0
:103C8000D3F8B81006EA040221EA06041443C3F884
:103C9000B84070BD054BD3F8BC1006EA040221EA17
:103CA00006041443C3F8BC4070BD00BF00A0084028
:103CB00084500000034A536823F4E0131843506013
:103CC000704700BF00A008400B4B0C4901229A60CE
:103CD0008B6813400BD00A4810B400234AF6E8540E
:103CE0008C6002605DF8044B03608B607047044990
:103CF0000A600B60704700BF00A00C4000600C40E1
:103D000080048C433B4B5B6803F00102990710462B
:103D100004D513F0810F08BF42F00200590704D503
:103D200013F0910F08BF40F00400190701D5002AD5
:103D30005CD0D90603D5990708BF40F0100099065A
:103D400004D54EF6DF71194000294CD0590604D530
:103D50004EF69F711940002942D0190604D540F251
:103D600019711940002938D0D90503D540F21961DD
:103D7000194079B3990503D540F21F41194031B379
:103D8000590503D540F21F211940E9B1190500D5A5
:103D9000BAB1D90400D58AB1990400D55AB15904F1
:103DA00000D52AB11B0402D50AB940F4004070477F
:103DB00040F48040F6E740F40050F0E740F48050D3
:103DC000EAE740F40060E4E740F48060DEE740F4B6
:103DD0000070D5E740F48070CCE740F08000C3E786
:103DE00040F04000B9E740F02000AFE740F00800A5
:103DF0009FE700BF00A00C40012810B5044603D97E
:103E000007487921FEF7D0FD34B1012C02D1054BD2
:103E1000D86810BD002010BD024B986810BD00BFCF
:103E2000E850000000000840012838B504460D465F
:103E300009D90848AA21FEF7B7FD4CB1012C01D1E0
:103E4000054B1D6038BD11F07F4FF2D1002CF5D12C
:103E5000024BF6E7E85000000C000840080008405C
:103E60004FF0864318607047427803780AB143F0F8
:103E7000020382780AB143F00403014A13607047D9
:103E80000000084008B50020FFF7B6FF802809D0E1
:103E90000020FFF7E5FF00208021FFF7C5FF01208C
:103EA000FFF7DEFF0D4B07229A61EFF311834FF00E
:103EB000BF0282F31188BFF36F8FBFF34F8FFDF7FF
:103EC000DDFE38B1064B4FF080521A60BFF34F8FC2
:103ED000BFF36F8F002383F3118808BD00000840F3
:103EE00004ED00E0F0B51F4B1F4A204D20481A603A
:103EF00083B00121FFF71AFA1E481F4C0221FFF779
:103F00006FFA28460221FEF737FE28460121FFF707
:103F10000DFA0025012601A88DF804508DF80550F2
:103F20008DF80660FFF7A0FFE269144B22F0020251
:103F30004FF0E00E4FF08047E261284683F81EE321
:103F40008021C3F880711F60FFF76EFF0223A36119
:103F5000E36943F002033046E361FFF781FF03B0FA
:103F6000F0BD00BFFC240020FFFF01006016100020
:103F70000043020002001A000000084000E100E0D7
:103F8000294A2A4B2DE9F041064600205C68156855
:103F9000FFF766FF0020FFF72FFF8034241AFFF79A
:103FA000E9FB0746FEF730FA08B3B54228BF3546AD
:103FB0000020C4EBC511FFF737FF0120FFF750FFCA
:103FC0000DBB1A4E0020D6F80480FFF749FF366972
:103FD0003846FFF7D3FB16F002001BD0013D01204D
:103FE000FFF73EFF2846BDE8F041FDF72FBEC4F1C4
:103FF0008001FFF719FF0120FFF732FF3846BDE8C7
:10400000F041FFF7BBBBFCF73DFCBFF34F8FBFF3A5
:104010006F8FD6E74444E509A4EBC511C1F18001D7
:10402000FFF702FFDBE700BFFC2400200000084090
:1040300008B5074C206800210B464FF0FF32FDF712
:1040400073F90128F6D10348FCF736FBF2E700BF0D
:10405000602500206425002038B50E4B0E4C0F491A
:104060000F484FF47A72DA61DA68042542F00102EF
:10407000DA6025605A6A00F0A1F80A4B002118683E
:104080000A460B46FCF7A6FE4020BDE83840FDF787
:1040900041BF00BF0000014000E100E04C510000C2
:1040A000642500206025002030B583B0FCF7EAF8D5
:1040B00000200146FCF7C8FB0320FCF71FFC002092
:1040C000FCF7A4FA032201200021FCF741FE0F4A6D
:1040D000106020B100210A460B46FCF77BFE00244D
:1040E000012523460095019409490A489622FDF7C7
:1040F00097FB234608490095962201940748FDF74F
:104100008FFBFDF793FC204603B030BD60250020F7
:1041100054510000594000005C5100003140000043
:1041200008B5074B044613B10021AFF30080054BDF
:104130001868836A03B19847204600F05FFC00BF0F
:10414000000000006C51000070B50E4B0E4CE41ADC
:10415000A41000251E46A54204D056F825309847E5
:104160000135F8E700F04CFC084C094BE41AA410A8
:1041700000251E46A54204D056F825309847013543
:10418000F8E770BD7000002070000020740000206F
:104190007000002010B5431E0A44914204D011F86B
:1041A000014B03F8014FF8E710BD02440346934268
:1041B00002D003F8011BFAE7704700000EB400B507
:1041C0009CB04FF40271ADF814106FF000410491EF
:1041D00007914FF6FF711DABADF81610084953F863
:1041E000042B029006900868019302A900F06CF875
:1041F000029B00221A701CB05DF804EB03B07047FC
:104200006C000020034613F8012B002AFBD1181A7A
:10421000013870472DE9F0478E68B34282460C465C
:104220009046994640D38A8912F4906F3AD0256817
:1042300009696F1A6569022305EB450595FBF3F5DE
:104240007B1C4B449D4238BF1D4653050FD5294664
:1042500000F030FB064698B121693A46FFF79AFF15
:10426000A38923F4906343F08003A38113E02A46DB
:1042700000F076FB064670B95046216900F0D6FA88
:104280000C23CAF80030A38943F04003A3814FF008
:10429000FF30BDE8F087266165613E44ED1B266076
:1042A000A5604E46B14500D24E4632462068414692
:1042B00000F0A1FAA3689B1BA36023681E4426603C
:1042C0000020BDE8F08700002DE9F0439DB00646D0
:1042D00003938B891C060D4690460CD50B6953B988
:1042E000402100F0E7FA2860286110B90C23336000
:1042F000CCE040236B610023099320238DF8293003
:1043000030238DF82A3043461C4613F8012B1AB986
:10431000B4EB08090FD002E0252AF5D1F8E73046C2
:10432000294642464B46FFF775FF013000F0A98051
:10433000099B4B4409932378002B00F0A2800023B3
:104340004FF0FF3204930793059206938DF8533094
:104350001A9304F101084446DFF848912178484651
:10436000052200F039FA08F10108049B30B1C9EBCD
:1043700000000122824013430493ECE7D80644BFB7
:1043800020228DF85320190744BF2B228DF853208B
:1043900022782A2A02D0079923460EE0039A111D9B
:1043A00012680391002ABBBF524243F002030792F6
:1043B0000792B8BF049301340AE01C460133227807
:1043C000303A092A03D80A2000FB0121F5E70791BA
:1043D00023782E2B1AD163782A2B0AD1039B1A1D1E
:1043E0001B680392002BB8BF4FF0FF3302340593D4
:1043F0000CE0611C00220C4601312378303B092B74
:1044000003D80A2000FB0232F5E70592DFF8988016
:1044100021784046032200F0DFF938B1049AC8EB56
:1044200000004023834013430493013421781A4849
:104430008DF82810062204F1010800F0CDF988B1AA
:10444000164B33B9039B073323F007030833039359
:1044500013E003AB0093304604A92A46104BAFF398
:10446000008007E003AB0093304604A92A460C4BBA
:1044700000F092F8421C074603D0099B3B44099385
:1044800041E7AB895B0601D4099801E04FF0FF30AA
:104490001DB0BDE8F08300BF7A51000000000000AD
:1044A0001542000070510000765100002DE9F843DC
:1044B00091461F468A680B69DDF820809342B8BF99
:1044C0001346C9F8003091F8432006460C4612B155
:1044D0000133C9F800302368990642BFD9F800308B
:1044E0000233C9F80030256815F006051CD094F891
:1044F00043302268003318BF012392061FD5E1180C
:104500005A1C302081F84300224494F8451082F868
:104510004310023313E03046394604F119020123F7
:10452000C047013007D00135E368D9F800209B1A55
:104530009D42F0DBDBE74FF0FF30BDE8F88330460B
:10454000394604F14302C0470130F4D02268D9F85B
:104550000050E36802F00602042A08BF5D1B2269CE
:10456000A3680CBF25EAE57500259342C4BF9B1ADA
:10457000ED184FF00009A9450ADA3046394604F132
:104580001A020123C0470130D5D009F10109F2E731
:104590000020BDE8F88300002DE9FF410C461746D6
:1045A000227E6E2A984606460A9B01F1430100F0DE
:1045B000AF8012D8632A23D00AD8002A00F0BC802A
:1045C000582A40F0CB8084F84520DFF804E257E019
:1045D000642A1ED0692A1CD0C0E0732A00F0B08083
:1045E00009D86F2A2ED0702A40F0B880226842F095
:1045F000200222603FE0752A24D0782A3BD0ADE02B
:104600001A68111D1960136884F8423004F14205DC
:10461000A8E020681A6810F0800F02D0101D186002
:1046200008E010F0400F02F10400186002D0B2F967
:10463000003000E01368002B3EDA2D225B4284F844
:10464000432039E020681A6810F0800F02D0101D56
:10465000186007E010F0400F02F10400186001D06C
:10466000138800E01368227EDFF864E16F2A0CBF34
:1046700008220A221CE07822DFF858E184F845205D
:104680002268186812F0800F00F104051D6003D144
:10469000550601D5038800E00368D00744BF42F007
:1046A000200222601BB9226822F020022260102220
:1046B000002084F8430002E0DFF814E10A22656874
:1046C000A560002DA2BF206820F00400206003B97F
:1046D00065B10D46B3FBF2F002FB10331EF8033058
:1046E00005F8013D03460028F4D100E00D46082AF4
:1046F0000BD12368DA0708D5236962689A42DEBFC6
:10470000302305F8013C05F1FF35491B21612EE0FE
:1047100025681A68606915F0800F03D0151D1D60AB
:10472000136808E015F0400F02F104051D601368DE
:1047300001D0188000E01860002323610D4616E0C8
:104740001A68111D1960156862682846002100F07A
:1047500043F808B1401B6060636804E004F142055F
:1047600084F8422001232361002384F84330CDF8EC
:1047700000803046214603AA3B46FFF797FE0130F2
:1047800002D14FF0FF301FE0304639462A462369F8
:10479000C0470130F5D023689B0705D4E068039B30
:1047A0009842B8BF18460FE00025E368039A9B1AA9
:1047B0009D42F3DA3046394604F119020123C0471D
:1047C0000130DED00135F0E704B0BDE8F08100BF74
:1047D000815100009251000010B5C9B202449042CC
:1047E000034606D01C788C4200F10100F7D1184630
:1047F00010BD002010BD814210B501EB020301D3B2
:10480000421E0BE09842FBD28118D21AD34204D048
:1048100013F8014D01F8014DF8E710BD994204D09D
:1048200011F8014B02F8014FF8E710BD30B500292F
:104830003DD051F8042C0B1F1D49002AB8BF9B180E
:104840000A680C4612B95A600B6030BD93420DD213
:1048500019685818904201BF5A5852181A60426895
:104860005A60236030BD994203D80A465168002936
:10487000F9D1146815199D420AD11B682344D01838
:104880008842136013D10868034413604B680DE03D
:1048900002D90C23036030BD1C681819884204BF7C
:1048A00008684968596004BF00191860536030BD3A
:1048B0000425002070B5CC1C24F0030408340C2C13
:1048C00038BF0C24002C064603DA0C23336000208A
:1048D00070BD8C42F9D3204A136810461946A1B125
:1048E0000A68121B0ED40B2A03D90A608B188C504D
:1048F0001FE08B420DBF5A684A685A60026018BFB9
:104900000B4616E00B464968E9E7144D2B681BB9C6
:10491000304600F04BF828603046214600F046F85B
:10492000421C0346D1D0C51C25F0030585420AD19F
:104930001C6003F10B001A1D20F00700821A0AD038
:104940005142995070BD3046E91A00F02FF80130FD
:10495000BBD02B46ECE770BD0425002000250020CD
:10496000F8B5074615460E4621B91146BDE8F84090
:10497000FFF7A0BF1AB9FFF759FF2846F8BD00F0AE
:1049800025F8A8420ED238462946FFF793FF044681
:1049900050B131462A46FFF7FDFB38463146FFF756
:1049A00045FF01E03046F8BD2046F8BD38B5064C5D
:1049B000002305460846236000F012F8431C02D18C
:1049C000236803B12B6038BD6C25002051F8040C1E
:1049D0000028BEBF091851F8043CC01804387047BD
:1049E000044A05491368002B08BF0B4618441060A1
:1049F000184670470825002070250020FEE700BFFC
:104A0000F8B500BFF8BC08BC9E467047F8B500BFBB
:104A1000F8BC08BC9E467047010105070703040265
:104A20000302040605060D0E0E0E0D0D0D0D0E0EE5
:104A30000E0E0D0D01010507070304020302040613
:104A400005060F1010100F0F0F0F101010100F0F82
:104A500001010507070304020302040605061112FB
:104A60001212111111111212121211110101050766
:104A700007030402030204060506131C1C1C13137F
:104A800013131C1C1C1C1313000105070602030151
:104A90000302040604051D1E1E1E1D1D1D1D1E1ED7
:104AA0001E1E1D1D00010507060203010302040668
:104AB00004051F2020201F1F1F1F202020201F1F34
:104AC000010105070703040203020406050621226B
:104AD0002222212121212222222221210705020135
:104AE00003060423232323232323070502010306AC
:104AF0000424242424242424070502010306042575
:104B00002525252525250705020103060426262639
:104B1000262626260001070206272727272700002A
:104B2000000000000000131211100F0E0D0C000009
:104B300000002125242601010304040203020D0EB6
:104B40000D0D0E0D0E0E01010304040203020F10E1
:104B50000F0F100F101001010304040203021112C1
:104B60001111121112120101030404020302131C99
:104B700013131C131C1C00010203040103021D1E5D
:104B80001D1D1E1D1E1E00010203040103021F2025
:104B90001F1F201F20200101030404020302212201
:104BA00021212221222205070704040605060E0EF4
:104BB0000D0D0E0E0D0D0507070404060506101059
:104BC0000F0F10100F0F0507070404060506121239
:104BD00011111212111105070704040605061C1C09
:104BE00013131C1C131305070603040604051E1EDD
:104BF0001D1D1E1E1D1D050706030406040520209D
:104C00001F1F20201F1F0507070404060506222278
:104C10002121222221210000010000000300400088
:104C20000C00000000000000000000000000001167
:104C300080020000000002060000200039000F0082
:104C40000000401500204004001000223F00060034
:104C50005B044F0466046D047D0407007F046F0449
:104C600000000000000A000080200000FFFF770421
:104C7000790A3900B020790071007D0476040600BD
:104C80000E00700A3800B602B6083F0073043F08F1
:104C9000730C6D0401113E0030223628802A6E0408
:104CA0000922390080080F00010008000001581097
:104CB0007C0458005E04582071040C0C7404040039
:104CC0000E00700C3800541454045C047304670420
:104CD0005004080C78001C0010201428802A0C08AE
:104CE00048200000433A2F53696C69636F6E4C6132
:104CF00062732F53696D706C69636974795374754D
:104D000064696F2F76342F646576656C6F70657299
:104D10002F73646B732F6765636B6F5F73646B5F77
:104D200073756974652F76312E302F706C617466DF
:104D30006F726D2F656D6472762F736C6565702F61
:104D40007372632F736C6565702E6300433A2F5343
:104D5000696C69636F6E4C6162732F53696D706C1F
:104D6000696369747953747564696F2F76342F643D
:104D70006576656C6F7065722F73646B732F6765F2
:104D8000636B6F5F73646B5F73756974652F7631E6
:104D90002E302F7574696C2F74686972645F70614E
:104DA0007274792F6672656572746F732F536F75A5
:104DB0007263652F706F727461626C652F4D656DE3
:104DC0004D616E672F686561705F312E6300000072
:104DD000433A2F53696C69636F6E4C6162732F5352
:104DE000696D706C696369747953747564696F2F48
:104DF00076342F646576656C6F7065722F73646BA3
:104E0000732F6765636B6F5F73646B5F7375697432
:104E1000652F76312E302F7574696C2F7468697226
:104E2000645F70617274792F6672656572746F73F6
:104E30002F536F757263652F706F727461626C654A
:104E40002F4743432F41524D5F434D34462F706FE0
:104E500072742E6300000000433A2F53696C69633B
:104E60006F6E4C6162732F53696D706C6963697406
:104E70007953747564696F2F76342F646576656C29
:104E80006F7065722F73646B732F6765636B6F5FF1
:104E900073646B5F73756974652F76312E302F756F
:104EA00074696C2F74686972645F70617274792FB1
:104EB0006672656572746F732F536F757263652FB9
:104EC00071756575652E6300433A2F53696C69638C
:104ED0006F6E4C6162732F53696D706C6963697496
:104EE0007953747564696F2F76342F646576656CB9
:104EF0006F7065722F73646B732F6765636B6F5F81
:104F000073646B5F73756974652F76312E302F75FE
:104F100074696C2F74686972645F70617274792F40
:104F20006672656572746F732F536F757263652F48
:104F30007461736B732E6300433A2F53696C69631A
:104F40006F6E4C6162732F53696D706C6963697425
:104F50007953747564696F2F76342F646576656C48
:104F60006F7065722F73646B732F6765636B6F5F10
:104F700073646B5F73756974652F76312E302F758E
:104F800074696C2F74686972645F70617274792FD0
:104F90006672656572746F732F536F757263652FD8
:104FA00074696D6572732E6300000000546D725158
:104FB00000000000546D722053766300433A2F5373
:104FC000696C69636F6E4C6162732F53696D706CAD
:104FD000696369747953747564696F2F76342F64CB
:104FE0006576656C6F7065722F73646B732F676580
:104FF000636B6F5F73646B5F73756974652F763174
:105000002E302F706C6174666F726D2F656D6C69D8
:10501000622F7372632F656D5F636D752E63000081
:10502000633A5C73696C69636F6E6C6162735C7325
:10503000696D706C696369747973747564696F5CA8
:1050400076345C646576656C6F7065725C73646BF6
:10505000735C6765636B6F5F73646B5F73756974B3
:10506000655C76312E305C706C6174666F726D5C5D
:10507000656D6C69625C696E635C656D5F636D75BF
:105080002E680000433A2F53696C69636F6E4C6160
:1050900062732F53696D706C6963697479537475A9
:1050A00064696F2F76342F646576656C6F706572F6
:1050B0002F73646B732F6765636B6F5F73646B5FD4
:1050C00073756974652F76312E302F706C6174663C
:1050D0006F726D2F656D6C69622F7372632F656DD2
:1050E0005F6C63642E630000433A2F53696C6963FD
:1050F0006F6E4C6162732F53696D706C6963697474
:105100007953747564696F2F76342F646576656C96
:105110006F7065722F73646B732F6765636B6F5F5E
:1051200073646B5F73756974652F76312E302F70E1
:105130006C6174666F726D2F656D6C69622F73722E
:10514000632F656D5F7274632E6300002530376CCA
:1051500064000000436F756E740000004C6364507F
:1051600072696E7400000000430000000C00002013
:10517000232D302B2000686C4C0065666745464740
:1051800000303132333435363738394142434445C3
:105190004600303132333435363738396162636432
:0851A00065660000000000003C
:0851A80094AFFF7F010000003D
:1051B00000800000006CDC02AAAAAAAA000000007D
:1051C00000000000000000000000000000000000DF
:1051D0000000000000000000000000006851000016
:1051E00000000000000000000000000000000000BF
:1051F00000000000000000000000000000000000AF
:10520000000000000000000000000000000000009E
:105210000000000000000000000000000C00002062
:0C52200005010000E1000000000000009B
:04000003000002995E
:00000001FF
